:100000000C94AA080C9449190C9421190C94D20848
:100010000C94E7180C94D2080C94D2080C94D208D3
:100020000C94D2080C94D2080C94D2080C94D208E8
:100030000C94D2080C94D2080C94D2080C94D208D8
:100040000C9487170C94D2080C94D2080C94D20804
:100050000C94D2080C94D2080C94D2080C94D208B8
:100060000C94D1170C94D2086D6978000000000040
:10007000000000006C6576656C0000000000000068
:1000800064616D70696E67000000000064616D70EE
:10009000696E6700000000007265632F706C617903
:1000A0000000000064616D70696E67000000000070
:1000B000666565646261636B000000006665656487
:1000C0006261636B00000000726576657262000019
:1000D000000000006866206C6F7373000000000071
:1000E0006465636179206C660000000064616D7076
:1000F000696E6700000000006866206C6F73730013
:1001000000000000646563617900000000000000E9
:1001100072657665726200000000000074687265A6
:1001200065746170000000006D69780000000000D7
:10013000000000006D697800000000000000000071
:100140006D69780000000000000000002D2D2D00DA
:1001500000000000000000006D6978000000000051
:10016000000000002D2D2D00000000000000000008
:100170006C66206C6F737300000000006C66206C6E
:100180006F73730000000000666565646261636BF5
:100190000000000064656C61790000000000000050
:1001A000666565646261636B000000006665656496
:1001B0006261636B00000000666565646261636B89
:1001C00000000000666565646261636B000000000A
:1001D00064656C61792074696D6500006465707494
:1001E0006800000000000000666565646261636B82
:1001F0000000000072657665726200000000000079
:10020000646966667573696F6E00000074696D6578
:10021000000000000000000074696D65000000002F
:1002200000000000666565646261636B00000000A9
:1002300072657065617400000000000066656564A9
:100240006261636B00000000726174650000000071
:1002500000000000726174650000000000000000F2
:100260007261746500000000000000002D2D2D005B
:10027000000000000000000064656C61790000006F
:10028000000000002D2D2D000000000000000000E7
:100290006866206C6F737300000000006866206C55
:1002A0006F73730000000000636C6B383430000023
:1002B00000000000726576657262000000000000B8
:1002C000636C6B36373000000000000074696D65A8
:1002D000000000000000000064656C617920746912
:1002E0006D65000074696D6500000000000000008D
:1002F0006C666F20726174650000000074696D6542
:100300002F6672657100000074696D650000000061
:1003100000000000736869667400000000000000BF
:1003200074696D6500000000000000007072652DAA
:1003300064656C6179000000736869667400000090
:100340000000000064616D70696E670000000000CD
:1003500074696D6500000000000000007363616C4B
:1003600065000000000000007265766572620000A2
:1003700000000000726576657262000000000000F7
:1003800072657665726200000000000074756E652B
:10039000000000000000000073686966740000003F
:1003A000000000002D2D2D000000000000000000C6
:1003B00074696D65000000000000000074696D65DF
:1003C000000000000000000064656C61790000001E
:1003D0000000000064656C6179000000000000000E
:1003E00064656C61790000000000000064656C6168
:1003F000790000000000000064656C617900000075
:100400000000000064656C617900000000000000DD
:100410006D6F64756C6174696F6E00006D6F6475EB
:100420006C6174696F6E00007265766572620000BF
:100430000000000072657665726200000000000036
:100440007265766572620000000000007265766574
:100450007262000000000000726576657262000042
:100460000000000072657665726200000000000006
:100470007265766572620000000000007265766544
:1004800072620000000000006D6F64756C61746939
:100490006F6E00006D6F64756C6174696F6E000043
:1004A0006D6F64756C6174696F6E00007368696666
:1004B000740000000000000064656C6179000000B9
:1004C000000000002000000000000000000000000C
:1004D00072657665726200000000000072657665E4
:1004E000726200000000000044656C617900000049
:1004F000000000004563686F00000000000000007D
:1005000050696E67506F6E6700000000537461722F
:1005100072790000000000004C6F6F700000000056
:1005200000000000526E64204C6F6F7000000000ED
:1005300046617578000000000000000056696E7486
:100540006167650000000000537072696E6700000B
:1005500000000000506C61746500000000000000A5
:1005600052657665727365000000000048616C6C2E
:1005700000000000000000005261696E626F7700A9
:10058000000000005368696D6D6572000000000096
:10059000537061636500000000000000526F6F6DD2
:1005A000333435000000000043686F72757300003B
:1005B00000000000466C616E67657200000000007C
:1005C0005472656D6F6C6F000000000054756E65AD
:1005D000000000000000000054756E6520446C7936
:1005E0000000000042792050617373000000000099
:1005F00052657665726249000000000052657665BA
:10060000726249490000000000000000003E5B4F9C
:100610005B3E3E6B4F6B3E1C3E7C3E1C183C7E3C62
:10062000181C577D571C1C5E7F5E1C00183C180070
:10063000FFE7C3E7FF0018241800FFE7DBE7FF3000
:10064000483A060E2629792926407F050507407F6E
:1006500005253F5A3CE73C5A7F3E1C1C08081C1CE1
:100660003E7F14227F22145F5F005F5F06097F01D7
:100670007F006689956A606060606094A2FFA294C2
:1006800008047E040810207E201008082A1C080890
:100690001C2A08081E101010100C1E0C1E0C3038DE
:1006A0003E3830060E3E0E06000000000000005FDF
:1006B00000000007000700147F147F14242A7F2AFB
:1006C00012231308646236495620500008070300BD
:1006D000001C2241000041221C002A1C7F1C2A0809
:1006E000083E08080080703000080808080800006C
:1006F00060600020100804023E5149453E00427FE0
:10070000400072494949462141494D331814127F2E
:100710001027454545393C4A4949314121110907CE
:100720003649494936464949291E0000140000004F
:100730004034000000081422411414141414004121
:1007400022140802015909063E415D594E7C1211DE
:10075000127C7F494949363E414141227F41414116
:100760003E7F494949417F090909013E4141517391
:100770007F0808087F00417F41002040413F017F02
:10078000081422417F404040407F021C027F7F04CA
:1007900008107F3E4141413E7F090909063E415113
:1007A000215E7F09192946264949493203017F0103
:1007B000033F4040403F1F2040201F3F4038403F04
:1007C000631408146303047804036159494D43001A
:1007D0007F4141410204081020004141417F040251
:1007E00001020440404040400003070800205454E8
:1007F00078407F28444438384444442838444428C6
:100800007F385454541800087E090218A4A49C7818
:100810007F0804047800447D40002040403D007F74
:100820001028440000417F40007C047804787C0854
:100830000404783844444438FC1824241818242428
:1008400018FC7C08040408485454542404043F440D
:10085000243C4040207C1C2040201C3C4030403C3C
:1008600044281028444C9090907C4464544C44009C
:100870000836410000007700000041360800020100
:100880000204023C2623263C1EA1A161123A4040EC
:10089000207A385454555921555579412254547869
:1008A00042215554784020545579400C1E52721202
:1008B000395555555939545454593955545458008B
:1008C00000457C410002457D420001457C407D128F
:1008D00011127DF0282528F07C54554500205454F1
:1008E0007C547C0A097F4932494949323A4444449C
:1008F0003A324A4848303A4141217A3A42402078D7
:10090000009DA0A07D3D4242423D3D4040403D3CD7
:1009100024FF2424487E4943662B2FFC2F2BFF09FC
:1009200029F620C0887E09032054547941000044F0
:100930007D413048484A32384040227A007A0A0ADB
:10094000727D0D19317D2629292F2826292929264E
:1009500030484D4020380808080808080808382F93
:1009600010C8ACBA2F102834FA00007B000008141D
:100970002A142222142A14085500550055AA55AAF3
:1009800055AAFF55FF55FF000000FF00101010FF93
:1009900000141414FF001010FF00FF1010F010F0EE
:1009A000141414FC001414F700FF0000FF00FF14DF
:1009B00014F404FC141417101F10101F101F14142B
:1009C000141F00101010F0000000001F1010101075
:1009D0001F10101010F010000000FF101010101069
:1009E00010101010FF10000000FF140000FF00FFA7
:1009F00000001F10170000FC04F414141710171443
:100A000014F404F40000FF00F71414141414141464
:100A1000F700F7141414171410101F101F141414D7
:100A2000F4141010F010F000001F101F0000001F41
:100A300014000000FC140000F010F01010FF10FF74
:100A4000141414FF141010101F00000000F010FF09
:100A5000FFFFFFFFF0F0F0F0F0FFFFFF00000000ED
:100A600000FFFF0F0F0F0F0F3844443844FC4A4A71
:100A70004A347E02020606027E027E026355494126
:100A8000633844443C04407E201E2006027E02025D
:100A900099A5E7A5991C2A492A1C4C7201724C3071
:100AA0004A4D4D303048784830BC625A463D3E4948
:100AB0004949007E0101017E2A2A2A2A2A44445FEC
:100AC000444440514A444040444A51400000FF01E0
:100AD00003E080FF000008086B6B083612362436EE
:100AE000060F090F06000018180000001010003053
:100AF00040FF0101001F01011E00191D1712003CDB
:100B00003C3C3C0000000000000103070F1F3F7F3A
:100B10000080C0E0F0F8FCFEDB40A4A62EAF200071
:100B2000A1C8D300408DAED580A8000060000000B1
:100B30000000000000000000000000E000000000D5
:100B400000000000000000000001E00000000000C4
:100B5000000000000000000001F0000000000000A4
:100B60000000000000000003F00000000000000092
:100B700000000000000007F000000000000000007E
:100B8000000000000007F800000000000000000066
:100B9000000000000FF800000003C0007E0000010C
:100BA000E0007F0FF800000003C000FE000001E03D
:100BB00000FFEFF800000003C000FE000001E000AD
:100BC000FFFFF800000003C000F00000000F007FEE
:100BD000FE7FC0000003C000F00000000F003FFED9
:100BE0007FF83FF1FBCFFCFEF3BC3DEFE01FFE7F43
:100BF000FF7FFBFFDFFEFEFFBC3DEFE01FC6FFFFF8
:100C00007FFBFFDFFEFEFFBC3DEFE00FE3C7FE789A
:100C10007BC3DE1EF0FFBC3DEF0007FF87FC787B47
:100C2000C3DE1EF0F83C3DEF0001FFFFF0007BC388
:100C3000C01EF0F03C3DEF0001F37FE03FFBC3CF6F
:100C4000FEF0F03C3DEF0003E33F807FFBC3DFFE9F
:100C5000F0F03C3DEF0007E73C00787BC3DE1EF080
:100C6000F03C3DEF0007FFBE00787BC3DE1EF0F0D6
:100C70003C3DEF0007FFFE00787BC3DE1EF0F03C3A
:100C80003DEF000FFFFE007FFBFFDFFEF0F03FFDBA
:100C9000EFE00FFFFF007FFBFFDFFEF0F03FFDEF17
:100CA000E00FF9FF003E79F9CF9EF0F01F3DE7E03D
:100CB0001FF1FF0000000000000000000000001F06
:100CC00080FF007FFFFFFFFFFFFFFFFFFFE01C0033
:100CD0007F007FFFFFFFFEB46D888D18E000001FCE
:100CE000007FFFFFFFFE95AD7DB577E000000F00B0
:100CF0007FFFFFFFFEA5AD9D8D19E0000006007F80
:100D0000FFFFFFFEB5ADEDB57EE000000000000185
:100D100080000000000000000000038000000000D0
:100D2000000000000007C0000000000000000000FC
:100D300007C00000000000000000000FC00000001D
:100D40000000000000001FE00000000000000000A4
:100D5000001FE00000000000000000003FE0000075
:100D6000000000000000003FF00000000000000054
:100D700000007FF0000000000000001FF87FF0007E
:100D80000000000000003FFE7FF0000000000000B7
:100D9000003FFF7FF0000000000000001FFFFBE0AD
:100DA000000000000000000FFFF9FFC0000000007D
:100DB00000000FFFF9FFF800000000000007FFF13E
:100DC000FFFF00000000000003FC73FFFF80000035
:100DD00000000001FE3FFFFF80000000000000FF58
:100DE0001E0FFF000000000000007FFE1FFC00003F
:100DF00000000000003FFFFFF800000000000000BE
:100E00000FDFFFE0000000000000001F19FFC0001E
:100E10000000000000003F3CFF0000000000000058
:100E2000007E7CF800000000000000007FFE7C00D7
:100E300000000000000000FFFFFC000000000000B8
:100E40000000FFFFFE0000000000000000FFFFFEAA
:100E50000000000000000001FFEFFE0000000000A5
:100E6000000001FFCFFE0000000000000003FF07AC
:100E7000FE0000000000000003FC07FE0000000070
:100E800000000003F003FE000000000000000180ED
:100E900000FE000000000000000000007E000000D6
:100EA000000000000000003E000000000000000004
:100EB00000000C000000000000078000FC000003A0
:100EC000C0000000078001FC000003C00000000714
:100ED0008001FC000003C0000000078001E000006A
:100EE000001E000000078001E00000001E007FE3FC
:100EF000F79FF9FDE7787BDFC0FFF7FFBFFDFDFF40
:100F0000787BDFC0FFF7FFBFFDFDFF787BDFC0F020
:100F1000F787BC3DE1FF787BDE00F0F787BC3DE161
:100F2000F0787BDE0000F787803DE1E0787BDE0033
:100F30007FF7879FFDE1E0787BDE00FFF787BFFD4D
:100F4000E1E0787BDE00F0F787BC3DE1E0787BDE16
:100F500000F0F787BC3DE1E0787BDE00F0F787BC6E
:100F60003DE1E0787BDE00FFF7FFBFFDE1E07FFBC6
:100F7000DFC0FFF7FFBFFDE1E07FFBDFC07CF3F3E5
:100F80009F3DE1E03E7BCFC000000000000000007C
:100F9000000000FFFFFFFFFFFFFFFFFFFFC0FFFF9D
:100FA000FFFFFD68DB111A31C0FFFFFFFFFD2B5A69
:100FB000FB6AEFC0FFFFFFFFFD4B5B3B1A33C0FF37
:100FC000FFFFFFFD6B5BDB6AFDC06D73002000203F
:100FD0002D2D2D6D73006800740080008C0098002A
:100FE000A400B000BC00C800D400E000EC00F80091
:100FF000040110011C012801340140014C01580179
:10100000640170017C0188019401A001AC01B80168
:10101000C401D001DC01E801F40100020C02180255
:10102000240230023C024802540260026C02780240
:10103000840290029C02636C6B00A802B402C0029E
:10104000CC02D802E402F002FC02080314032003DD
:101050002C033803440350035C03680374038003C8
:101060008C039803A403B003BC033C203E00C803D8
:10107000D403E003EC03F803040410041C04280464
:10108000340440044C045804640470047C04880450
:101090009404A004AC04B804C404D004DC04E80440
:1010A000F40400050C051805240530053C05480529
:1010B000540560056C057805840590059C05A80518
:1010C000B405C005CC05D805E405F005FC05322EB5
:1010D0003000436F6E76657267656E6365207600DB
:1010E000496E7370697265002D3E436F64696E6767
:1010F0000000000000240027002A00000000002556
:101100000028002B0000000008000201000003047A
:101110000700000000000000002200FF210102047F
:101120000810204080010204081020010204081069
:101130002000000000230026002900040404040409
:101140000404040202020202020303030303030075
:101150007119C82411241FBECFEFD8E0DEBFCDBF68
:1011600011E0A0E0B1E0E6EEFDE402C005900D92D2
:10117000AE39B107D9F722E0AEE9B1E001C01D9266
:10118000A53EB207E1F718E0C9EAD8E004C021970C
:10119000FE010E94A125C83AD107C9F70E94581A3A
:1011A0000C94E6260C9400000895833081F028F416
:1011B000813099F08230A9F008958730A9F0883005
:1011C000C9F08430B1F4809180008F7D03C080919C
:1011D00080008F7780938000089584B58F7784BDD9
:1011E000089584B58F7DFBCF8091B0008F77809379
:1011F000B00008958091B0008F7DF9CF1F93CF93F9
:10120000DF93282F30E0F901EB5FFE4E8491F90166
:10121000E35EFE4ED491F901E55CFE4EC491CC2311
:10122000A9F0162F81110E94D508EC2FF0E0EE0FE7
:10123000FF1FE550FF4EA591B4918FB7F894EC9144
:10124000111108C0D095DE23DC938FBFDF91CF91C1
:101250001F910895DE2BF8CFCF93DF9390E0FC0130
:10126000E35EFE4E2491855C9E4EFC0184918823B2
:10127000C9F090E0880F991FFC01EF50FF4EA59137
:10128000B491FC01E550FF4EC591D49161110DC0A0
:101290009FB7F8948C91209582238C938881282382
:1012A00028839FBFDF91CF910895623051F49FB79B
:1012B000F8943C91822F809583238C93E8812E2B88
:1012C000EFCF8FB7F894EC912E2B2C938FBFEACFF2
:1012D0008E3008F08E508770806480937C008091FF
:1012E0007A00806480937A0080917A0086FDFCCF3A
:1012F000809178009091790008953FB7F89480919B
:101300007D0290917E02A0917F02B091800226B56D
:10131000A89B05C02F3F19F00196A11DB11D3FBF2D
:10132000BA2FA92F982F8827BC01CD01620F711DFC
:10133000811D911D42E0660F771F881F991F4A95F6
:10134000D1F708958F929F92AF92BF92CF92DF9282
:10135000EF92FF924B015C010E947D096B017C01C1
:101360000E947D096C197D098E099F09683E7340B2
:1013700081059105A8F321E0821A9108A108B1081E
:1013800088EEC80E83E0D81EE11CF11C8114910484
:10139000A104B10429F7FF90EF90DF90CF90BF90A8
:1013A000AF909F908F9008952FB7F8946091790235
:1013B00070917A0280917B0290917C022FBF0895F8
:1013C000AF92BF92CF92DF92EF92FF920F931F9353
:1013D000CF93DF936C017B018B01040F151FEB0191
:1013E0005E01AE18BF08C017D10759F06991D60148
:1013F000ED91FC910190F081E02DC6010995892BBA
:1014000079F7C501DF91CF911F910F91FF90EF9078
:10141000DF90CF90BF90AF900895EF92FF920F931F
:101420001F93CF93DF93EC01EC80FD806E157F0559
:101430000CF070C057FF04C0240F351F50E040E08F
:101440008E819F81FA01E20FF31F8E179F071CF414
:101450009C01241B350B121613060CF05BC0922F57
:10146000842F8695869586958E9DD0018F9DB00D93
:1014700011246A0F7B1FAF8DB8A1A60FB71F47704D
:1014800049F188E0841B482F682F70E0FB01E05F82
:10149000F44FE491281708F063C0621B71092FEF25
:1014A00030E002C0359527956A95E2F7E2230130D6
:1014B000110539F0B0F10230110561F58C91E82782
:1014C00002C08C91E82BEC93941720F12C813D8184
:1014D000A20FB31FE92FE41BE83078F002301105AA
:1014E00021F58E2F9C9190959C932C813D81A20F8C
:1014F000B31F88508830B0F7E770EE2359F0F0E062
:10150000E85FF44FE49101301105F9F010F1023079
:10151000110519F1DF91CF911F910F91FF90EF907D
:101520000895E0958C91E823CECF81E00115110557
:1015300009F480E081959E2F8C932C813D81A20F30
:10154000B31F98509830C0F7D7CF8C91E82BEC930D
:10155000E1CFE0958C91E823FACF8C91E827F7CF83
:101560000130110509F4ADCFE0F20230110509F4A4
:10157000A5CFAE0DBF1DAECF0F931F93CF93DF93BB
:1015800077FF04C0260F371F70E060E0DC0114967F
:10159000CD91DC91FB01E20FF31FCE17DF071CF4A6
:1015A0009E01261B370B121613064CF5FA0157FD48
:1015B0003796A3E0F595E795AA95E1F7EC9FD00162
:1015C000ED9FB00DFC9FB00D11246A0F7B1FDC0155
:1015D0005F96ED91FC91E60FF71F4770552781E06C
:1015E00090E001C0880F4A95EAF7482F01301105B5
:1015F00059F0A8F02E0F3F1F02301105E1F0DF91E6
:10160000CF911F910F9108952E0F3F1FE217F307FF
:10161000B1F38191DF011197842B8C93F7CF8095E3
:101620002E0F3F1FE217F30751F39191DF0111973E
:1016300098239C93F7CFE217F30709F38191DF0119
:10164000119784278C93F7CF0F931F93FA01DC0136
:1016500056964C9156974230E9F04330A1F1413013
:1016600061F514964D915C91DA01AE1BBF0BFD0143
:10167000E21BF30B77FD0BC0DC0116964D915C91DC
:101680006417750724F4AB01BF010E94BC0A1F91C7
:101690000F91089514964D915C91DA01A61BB70B3A
:1016A000BD0161507109DC0116964D915C91DA0122
:1016B000AE1BBF0BFD01E21BF30B77FDE8CFAF01C3
:1016C0000E940D0AE4CF16964D915C91DA01A61B9B
:1016D000B70BBD0161507109CDCF0F931F93FA0174
:1016E000DC0156964C9156974230A9F0433091F167
:1016F000413019F514964D915C91DA01AE1BBF0B88
:10170000FD013197F7FD04C0AB01BF010E940D0A36
:101710001F910F91089514964D915C91DA01A61BCB
:10172000B70BBD01DC0116964D915C91DA01AE1B41
:10173000BF0BFD013197621B730BF7FDE9CFDC0195
:1017400016964D915C91E417F50714F7AF010E94CE
:10175000BC0ADECF16964D915C91DA01A61BB70B41
:10176000BD01621B730BCECFFC0177FD64C0808589
:101770009185681779070CF05EC057FD5CC08285C3
:101780009385481759070CF056C086898230B1F00E
:10179000833029F1813041F484819581841B950B3C
:1017A000AB01BC01615071092130310509F108F428
:1017B00043C02230310509F463C0089584819581C6
:1017C000DC01A61BB70BBD016150710986819781B1
:1017D000DC01A41BB50BAD0141505109E5CF868159
:1017E0009781861B970BBA01AC0141505109DCCFA0
:1017F000CA0157FD0796A3E095958795AA95E1F74D
:10180000A481B5818A9F90018B9F300D9A9F300DE6
:101810001124620F731F078CF0A1E02DE60FF71F54
:101820004770552721E030E001C0220F4A95EAF7C2
:101830008081822B80830895CA0157FD079633E08B
:10184000959587953A95E1F7A481B5818A9F900196
:101850008B9F300D9A9F300D1124620F731F078CE0
:10186000F0A1E02DE60FF71F4770552781E090E0CB
:1018700001C0880F4A95EAF7809590818923DACFD5
:10188000CA0157FD079623E0959587952A95E1F7BC
:10189000A481B5818A9F90018B9F300D9A9F300D56
:1018A0001124620F731F078CF0A1E02DE60FF71FC4
:1018B0004770552721E030E001C0220F4A95EAF732
:1018C00080818227B7CF08958EBD00000DB407FE3A
:1018D000FDCF8EB508958CBD9DBD08950895FC0182
:1018E0006370668B8481958126813781613039F000
:1018F000633029F091878087338722870895318765
:1019000020879387828708952F923F924F925F920C
:101910006F927F928F929F92AF92BF92CF92DF92FF
:10192000EF92FF920F931F93CF93DF93CDB7DEB764
:101930006A970FB6F894DEBF0FBECDBF9A8F898F1E
:101940007A8369834A01D22E18870F833701BC2C12
:10195000DC0159962D913C915A972115310509F0DA
:1019600015C118968D919C911997681779070CF0FD
:10197000D7C11A968D919C91481759070CF0D0C188
:101980004C2C512CB6E0CB9E600D711D11247C8730
:101990006B87161617060CF0C3C1EA2DF0E0FA8724
:1019A000E98793E0EE0FFF1F9A95E1F7F88BEF8739
:1019B000CF01840F951F181619060CF0B1C1A98D1F
:1019C000BA8D58968C91811104C0BFEABD1508F4F8
:1019D000D394A98DBA8DED91FC9111970284F38572
:1019E000E02DCD010995B5E0DB9EC0011124E98110
:1019F000FA81FC83EB83312C212C9C01285F394F29
:101A0000388F2F8B4A2D50E05E8B4D8BEF89F88DF0
:101A1000E20DF31D44919E828D82D12CC12C6981EF
:101A20007A81620D731D7A8B698B842F90E09C8B79
:101A30008B8BE98DFA8DA081B18140FF82C0F1E0EE
:101A4000BF126FC0AF126DC01C96ED91FC912F813B
:101A50003885A4014C0D5D1D69897A89898D9A8D1F
:101A60000995EB89FC89F595E7954E2F5FEFC51A2F
:101A7000D50A6D817E818D899E89680F791F7E834D
:101A80006D8398E0C916D10481F6AFEF2A1A3A0A9D
:101A9000EB81FC81E40DF51DFC83EB83F5E02F1653
:101AA000310409F0B3CF2F81388526153705B9F0F9
:101AB000A98DBA8DED91FC91B1E0BB1257C0AB126C
:101AC00055C069817A816B5F7F4F0088F189E02D75
:101AD000830128E030E0A401898D9A8D0995A98DB4
:101AE000BA8DED91FC9111970688F789E02DCD0113
:101AF0006A960FB6F894DEBF0FBECDBFDF91CF91CF
:101B00001F910F91FF90EF90DF90CF90BF90AF901B
:101B10009F908F907F906F905F904F903F902F900D
:101B200009941E96ED91FC91EF80F88409851A8541
:101B300092014D815E816B817C81898D9A8D0995A1
:101B400090CF2F8138852615370509F48ACF31E0EB
:101B5000B31207C0A31205C01C96ED91FC9193012E
:101B600078CF1E96ED91FC917301E0CF6B857C855B
:101B7000641975090684F785E02D73010F851889AE
:101B80009201A401898D9A8D0995A9CFF901349606
:101B90009491329745915491D91AB7E0DB9E400D4C
:101BA000511D1124F901259134913C8B2B8BFA01A5
:101BB00025903490FA013296749031963491398B95
:101BC000329664903196449041E04C1518F04A15D5
:101BD00008F07FC0662D062C000C770B7C836B838E
:101BE000842D042C000C990B9E838D83A98DBA8DB6
:101BF000ED91FC9111970284F385E02DCD010995BB
:101C0000512CD12CC12CEA2DF0E0FA87E9872B2D3D
:101C100030E03C872B87A401440D511D47FC5A95A9
:101C2000588F4F8B69817A81660D711D67FC7A959B
:101C30007E876D877989C71608F051CF2C2D30E04B
:101C40004D815E81420F531FA985BA854A9FC0010D
:101C50004B9F900D5A9F900D1124FC01E80DF91D2A
:101C6000F88BEF87852D612C4F89588D420F531FBC
:101C70005E8B4D8B671408F050C044244394480E8B
:101C8000877041F4C1010196EB89FC89E20DF31DD7
:101C9000D4901C01D7FE19C0A98DBA8DED91FC918D
:101CA000662D70E0B1E0BB1219C0AB1217C02D85D4
:101CB0003E85620F731F0484F585E02D2F813885E2
:101CC0004D895E89898D9A8D0995DD0C6394842DEB
:101CD000D1CF1E821D821C821B8288CF4B815C81EA
:101CE000640F751FAB85BC856A9FC0016B9F900D0B
:101CF0007A9F900D112469817A81680F791F06847B
:101D0000F785E02DEF80F88409851A859D014F85C0
:101D10005889898D9A8D0995D8CF570CC3948ACF4D
:101D20006A960FB6F894DEBF0FBECDBFDF91CF919C
:101D30001F910F91FF90EF90DF90CF90BF90AF90E9
:101D40009F908F907F906F905F904F903F902F90DB
:101D500008958F929F92AF92CF92EF92FF920F933E
:101D60001F93CF93DF93EC01262F898D9A8D0097D7
:101D700009F051C06A30D1F41D861C868D8948E077
:101D8000849F900111248E859F85820F931F9F87CA
:101D90008E8781E090E0DF91CF911F910F91FF90AE
:101DA000EF90CF90AF909F908F9008956D3089F312
:101DB000CC88AD888F898823C1F08C859D8536E0DD
:101DC000C39E800D911D11244885598548175907D8
:101DD00064F44E855F851D861C8638E0A39EC00195
:101DE0001124840F951F9F878E87EA88FB880889B6
:101DF00019894E855F856C857D85CE010E94840C96
:101E00002C898C859D8546E0249F800D911D112491
:101E10009D878C87BECF6A3069F41D861C86FC01C5
:101E20003896E4912D898E859F85E29F800D911DC6
:101E30001124ADCF6D3009F4ACCFFC013496349150
:101E4000631708F4A6CF3296E491E61708F4A1CF01
:101E5000FC01329685909490462F431B342F47E027
:101E6000349F800C911C1124F401329634913196E8
:101E7000E4913323A9F1EE2399F1CC88F40135964E
:101E8000E491AD884F89442301F10E2E000CFF0B25
:101E9000E30FF11DCE9EA001CF9E500D11246C8545
:101EA0007D85460F571F68857985641775076CF423
:101EB0004E855F851D861C86FC013896E491AE9E9A
:101EC000400D511D11245F874E87EA88FB880889E1
:101ED00019894E855F856C857D85CE010E94840CB5
:101EE000F4013496E4912C898C859D85E29F800DC8
:101EF000911D11248DCF0F931F93CF93DF938C01EE
:101F0000D0E0C0E0F801EC0FFD1F6491662341F0C2
:101F100081EA92E00E94A90E892B11F02196F2CF5E
:101F2000CE01DF91CF911F910F9108956F927F9213
:101F30008F929F92AF92BF92CF92DF92EF92FF92D9
:101F40000F931F93CF93DF93EC016B015A0139017B
:101F50004801E881F9810284F385E02D0995E88143
:101F6000F9810288F389E02D87019301A501B6016B
:101F7000CE010995A501480D591D41505109E8812F
:101F8000F9810288F389E02D9301B601CE0109950C
:101F9000E881F9810088F189E02D9401A501B6015D
:101FA000CE010995C60CD71CB60161507109E881B4
:101FB000F9810088F189E02D9401A501CE010995F0
:101FC000E881F9810688F789E02DCE01DF91CF9174
:101FD0001F910F91FF90EF90DF90CF90BF90AF9047
:101FE0009F908F907F906F9009946F927F928F92C5
:101FF0009F92AF92BF92CF92DF92EF92FF920F9398
:102000001F93CF93DF935C01EB016A014901380113
:102010008701DC01ED91FC916217730719F56416D5
:1020200075062CF0962D872D3A01C92ED82E9601D3
:10203000261937092F5F3F4F048CF58DE02DA30142
:10204000BE01C5010995DF91CF911F910F91FF90BE
:10205000EF90DF90CF90BF90AF909F908F907F9048
:102060006F9008954615570591F42617370724F009
:10207000892D4B01C22FD82F9E01281939092F5FB6
:102080003F4F068CF78DE02DA601B401DACF028414
:10209000F385E02D0995D501ED91FC910488F58932
:1020A000E02D83019401A601BE01C5010995D5016A
:1020B000ED91FC910688F789E02DC501DF91CF9164
:1020C0001F910F91FF90EF90DF90CF90BF90AF9056
:1020D0009F908F907F906F900994EF92FF920F9353
:1020E0001F93DC011A960D911C911B9718962D9148
:1020F0003C911997ED91FC9100A0F1A1E02D7B019D
:1021000050E040E070E060E009951F910F91FF9072
:10211000EF9008954F925F926F927F928F929F926D
:10212000AF92BF92CF92DF92EF92FF920F931F93E5
:10213000CF93DF936C012B015A0139014801DC0177
:10214000ED91FC910284F385E02D0995E201640C88
:10215000751CD601ED91FC91C615D7055CF400887D
:10216000F189E02D87019401A501BE01C601099501
:102170002196EFCF0688F789E02DC601DF91CF9138
:102180001F910F91FF90EF90DF90CF90BF90AF9095
:102190009F908F907F906F905F904F9009948F9257
:1021A0009F92AF92BF92CF92DF92EF92FF920F93E6
:1021B0001F93CF93DF93EC015B014A016901E88132
:1021C000F9810284F385E02D099595012C0D3D1DC3
:1021D00021503109E881F9810488F589E02D7801E1
:1021E0008401A401B501CE010995E881F981068831
:1021F000F789E02DCE01DF91CF911F910F91FF90D4
:10220000EF90DF90CF90BF90AF909F908F90099408
:102210008F929F92AF92BF92CF92DF92EF92FF92F6
:102220000F931F93CF93DF93EC015B014A01690188
:102230007801E881F9810284F385E02D0995C80CC5
:10224000D91C860101501109E881F9810488F589BA
:10225000E02D9501A401B501CE010995E881F98130
:102260000688F789E02DCE01DF91CF911F910F9164
:10227000FF90EF90DF90CF90BF90AF909F908F90A6
:102280000994EF92FF920F931F93DC01ED91FC9163
:1022900000A0F1A1E02D09951F910F91FF90EF9003
:1022A00008950F931F93DC01ED91FC91068CF78D3F
:1022B000E02D09951F910F9108950F931F93DC0155
:1022C000ED91FC91048CF58DE02D09951F910F91F6
:1022D0000895DC01ED91FC910084F185E02D0994D5
:1022E0003F924F925F926F927F928F929F92AF92A6
:1022F000BF92CF92DF92EF92FF920F931F93CF93F3
:10230000DF935C017B014A016901390187E0680EB6
:10231000711C93E0759467949A95E1F72B01400E38
:10232000511E10E000E0312CD0E0C0E0CE018770FB
:102330009927330C892B59F4FE0183E0F595E79535
:102340008A95E1F7E00FF11FE80DF91D349037FE93
:102350000AC021E030E0A701B5016C0F7D1F81EAC2
:1023600092E00E9469112196CC16DD06F9F68FEFF6
:10237000E81AF80A060D171DE414F504A9F6DF9112
:10238000CF911F910F91FF90EF90DF90CF90BF9072
:10239000AF909F908F907F906F905F904F903F9005
:1023A00008952F923F924F925F926F927F928F92F9
:1023B0009F92AF92BF92CF92DF92EF92FF920F93D4
:1023C0001F93CF93DF9300D000D000D0CDB7DEB7FE
:1023D0003C016A013E832D83FC82EB825801A41AE2
:1023E000B50AB7FE03C0B194A194B1088D809E8058
:1023F000861A970A97FE03C09194819491088A14D3
:102400009B045CF0902F812F0D811E819D838E8314
:102410009C2D8D2D6B01692F782F0C151D055CF0FF
:102420009D818E817E836D83692F782F902F812FE0
:102430008601C92ED82E1601201A310A2B012D81B2
:102440003E81421A530A57FE03C0519441945108E9
:10245000710137FE03C03FEFE31AF30AF594E794E6
:102460008D819E81861797075CF5A1E0B0E0BA8365
:10247000A983C016D1064CF1D301ED91FC910484DF
:10248000F585E02D2B813C81A8016D817E818A1428
:102490009B041CF04D815E81B801C3010995E418CD
:1024A000F508F7FE0AC02D813E8189819A81280FA7
:1024B000391F3E832D83E20CF31C0F5F1F4FD9CFD2
:1024C0002FEF3FEF3A832983D4CF26960FB6F894A7
:1024D000DEBF0FBECDBFDF91CF911F910F91FF9057
:1024E000EF90DF90CF90BF90AF909F908F907F90B4
:1024F0006F905F904F903F902F900895089585EDD5
:102500008093BC008091BC0084FDFCCF1092290216
:102510000895613298F420912902243089F460935F
:10252000DF01282FAFEBB1E0FC018E2F821B861755
:1025300010F080E0089581918D93F7CF81E00895A8
:1025400082E0089581E090E030912B0220912A02F0
:10255000321710F490E080E09195819591090895EB
:1025600080912B0290912A02891730F48F5F80931B
:102570002B0290E080E008958FEF9FEF0895809107
:102580002A0290912B02891B990B0895CF92DF921A
:10259000EF92FF920F931F93CF93DF937C01CB01B8
:1025A0008A0120918402222389F0EB016B01C40E81
:1025B000D51ECC15DD0569F06991D701ED91FC912F
:1025C0000190F081E02DC7010995F3CF642F0E949F
:1025D0008912C801DF91CF911F910F91FF90EF9069
:1025E000DF90CF900895CF93DF931F92CDB7DEB7E2
:1025F0006983209184022223F9F020918102203204
:1026000058F021E030E0FC013383228390E080E049
:102610000F90DF91CF91089580918202E82FF0E032
:10262000E156FE4F998190838F5F80938202809361
:10263000810281E090E0ECCF61E0CE0101960E9442
:102640008912F7CF2091810281E0213208F040C049
:10265000809129028111FCCF8091830292E09093B6
:10266000290291E0909328029FEF9093020210922A
:10267000240220932302AFE9B1E0E3E0F2E090E02E
:1026800029132DC01092250290912502880F892BC5
:102690008093250280912702813031F41092270225
:1026A000809125028093BB0085EE8093BC008091D1
:1026B00029028230E1F3809102028F3FA1F08091E4
:1026C0000202803291F080910202803381F084E036
:1026D00010928202109281021092840208953D911C
:1026E00031939F5FCDCF80E0F3CF82E0F1CF83E0E5
:1026F000EFCFEF92FF920F931F93CF93DF937C0165
:10270000C62F8091BE029091BF02009709F459C074
:102710002091C20231E03093840220938302109210
:10272000820210928102DC01ED91FC910190F08116
:10273000E02D60E009958701EE24E394F12CD1E0CF
:10274000C1508091BE029091BF02CF3F91F1B0E2A3
:10275000EB16F104D8F00E9422138091BE029091F2
:10276000BF022091C202D093840220938302109270
:10277000820210928102DC01ED91FC910190F081C6
:10278000E02D60E00995EE24E394F12C8091BE02E7
:102790009091BF02F8016491DC01ED91FC910190F0
:1027A000F081E02D0995BFEFEB1AFB0A0F5F1F4F79
:1027B000C7CFDF91CF911F910F91FF90EF900C94B5
:1027C0002213E091CE02F091CF0290818091D40249
:1027D0008095892380838701C15008F438C0F801AF
:1027E00084912091BC023091BD02232B29F00E94DC
:1027F000640C0F5F1F4FF0CF28E030E040E8E0911D
:10280000CA02F091CB029091D202582F5423D9F0F2
:102810005081952B9083E091CC02F091CD02908174
:102820005091D302952B9083E091CC02F091CD0290
:1028300050819091D3029095952390834695215095
:102840003109E9F6D6CF508190959523E3CFDF91FA
:10285000CF911F910F91FF90EF9008951F93CF9309
:10286000DF93EC018D8D9E8D009721F1162F29A10C
:1028700031E03093840220938302109282021092FE
:102880008102DC01ED91FC910190F081E02D60E08E
:1028900009958D8D9E8DDC01ED91FC910190F0816B
:1028A000E02D612F09958D8D9E8DDF91CF911F9128
:1028B0000C942213ADA5BEA59C918BA9809589236C
:1028C0008C938B8D9C8D892B31F0862FDF91CF914E
:1028D0001F910C94640C28E030E080E8A9A5BAA50B
:1028E00099A9462F4823C1F04C91942B9C93ABA5FA
:1028F000BCA59C914AA9942B9C93ABA5BCA54C91DB
:102900009AA9909594239C9386952150310931F78B
:10291000DF91CF911F9108954C9190959423E6CF2C
:10292000DF92EF92FF920F931F93CF93DF938091EB
:10293000BE029091BF02892B09F4A5C02091D60256
:102940003091D7024091D8025091D90260E074E2F0
:1029500084EF90E00E94412520513109410951093D
:1029600056954795379527952093B80064E089E1FF
:1029700091E10E9479138091A5029091A602803482
:10298000910509F097C060E281EA92E00E942E145E
:102990006091A502615E81EA92E00E942E1420916E
:1029A000A7023091A802C901079697FD079633E068
:1029B000959587953A95E1F72091A5023091A60269
:1029C000829F8001839F100D929F100D1124C09152
:1029D000C002D091C1028091BE029091BF020C0F43
:1029E0001D1F009709F498C02091C20231E0309376
:1029F0008402209383021092820210928102DC01F1
:102A0000ED91FC910190F081E02D60E40995EE24B8
:102A1000E394F12CDD24D3948091BE029091BF0207
:102A20000C171D0709F44FC0B0E2EB16F104D8F003
:102A30000E9422138091BE029091BF022091C20297
:102A4000D09284022093830210928202109281021B
:102A5000DC01ED91FC910190F081E02D60E409959D
:102A6000EE24E394F12C8091BE029091BF02699113
:102A7000DC01ED91FC910190F081E02D0995BFEF13
:102A8000EB1AFB0AC9CF8091BC029091BD02892B41
:102A900031F08091DF029091E0020E946B0CE09196
:102AA000D002F091D10290818091D5028095892346
:102AB00080835CCF60E081EA92E00E942E146091F6
:102AC000A502615068CF0E9422138091BE029091AE
:102AD000BF02892B09F461C02091DA023091DB0238
:102AE0004091DC025091DD0260E074E284EF90E0FE
:102AF0000E944125205131094109510956954795B8
:102B0000379527952093B800DF91CF911F910F91B2
:102B1000FF90EF90DF900895E091CE02F091CF0208
:102B200080819091D402892B80830C171D0769F254
:102B300089912091BC023091BD02232B19F00E9493
:102B4000640CF3CF28E030E040E8E091CA02F09155
:102B5000CB029091D202582F5423D9F05081952B5B
:102B60009083E091CC02F091CD0290815091D302FC
:102B7000952B9083E091CC02F091CD025081909101
:102B8000D302909595239083469521503109E9F61B
:102B9000CCCF508190959523E3CFE091D002F09176
:102BA000D10280819091D502892B8083ADCF1F9374
:102BB000CF93DF93EC01162F8D8D9E8D892BB1F174
:102BC0002DA93EA94FA958AD60E074E284EF90E0D2
:102BD0000E944125205131094109510956954795D7
:102BE000379527952093B80066EA111167EACE0160
:102BF0000E942E148D8D9E8D892B41F129AD3AAD09
:102C00004BAD5CAD60E074E284EF90E00E94412542
:102C10002051310941095109569547953795279516
:102C20002093B800DF91CF911F9108958B8D9C8DDB
:102C3000892B21F08EAD9FAD0E946B0CEFA5F8A9FA
:102C400090818CA9809589238083CECFEFA5F8A9A8
:102C500080819CA9892B8083E5CF90E080E0089556
:102C6000DC01ED91FD918081ED91FD919081ED91DF
:102C7000FD916C9163708E2309F064609F2309F0CD
:102C80006860EDE4F6E1E60FF11D659565956D93DD
:102C90006D917D918D919D91099423C01AC012C0B0
:102CA00016C010C01EC009C014C013C006C019C091
:102CB00009C00DC007C00DC014C0625070408040F4
:102CC00090400BC0615070408040904006C06E5FE5
:102CD00001C06F5F7F4F8F4F9F4F9E938E937E9368
:102CE0006E93089580919402823078F4F89489E884
:102CF00092E00E9430166091900270919102809152
:102D000092029091930278940895F894F4CF2091D0
:102D1000A7023091A802C901079697FD079623E004
:102D2000959587952A95E1F72091A5023091A60205
:102D3000829FA001839F500D929F500D112470E03F
:102D400060E08091C0029091C1020C94D126FC01F8
:102D500001900020E9F73197AF01481B590BBC01E6
:102D600081EA92E00C94E0098F929F92AF92BF9219
:102D70000F931F93CF93DF93CDB7DEB7A1970FB615
:102D8000F894DEBF0FBECDBF19A2423008F44AE06E
:102D90008E010F5D1F4F842E912CB12CA12CA5010B
:102DA00094010E944125E62FB901CA01EA30F4F4EA
:102DB000E05DD801EE938D01232B242B252B79F791
:102DC00090E080E0109719F0CD010E94A716A1961F
:102DD0000FB6F894DEBF0FBECDBFDF91CF911F912C
:102DE0000F91BF90AF909F908F900895E95CE1CFD5
:102DF000009711F00C94A71690E080E00895CF930F
:102E0000DF93CDB7DEB72C970FB6F894DEBF0FBEB9
:102E1000CDBF80916D02E0910501F0E0EE0FFF1F44
:102E2000811155C0E65AFF4E65917491CE0101960D
:102E30000E94D72443E050E06FE771E0CE01019695
:102E40000E94D826009709F439C080916D02E09164
:102E50000501F0E0EE0FFF1F811141C0EA5DFF4E5A
:102E600065917491CE0101960E94D72443E050E011
:102E70006FE771E0CE0101960E94D826892B09F4F4
:102E80003EC080916D02E0910501F0E0EE0FFF1F62
:102E900081112DC0EA50F04F65917491CE010196D9
:102EA0000E94D72443E050E06FE771E0CE01019625
:102EB0000E94D826892B31F582E090E02C960FB63F
:102EC000F894DEBF0FBECDBFDF91CF910895813062
:102ED00019F4E65BFF4EA8CFE65CFF4EA5CF81302C
:102EE00019F4EA5EFF4EBCCFEA5FFF4EB9CF8130E6
:102EF00019F4EA51F04FD0CFEA52F04FCDCF81E034
:102F000090E0DCCF8FEF9FEFD9CF0E94CC261F92AD
:102F10000F920FB60F9211242F933F938F939F938D
:102F2000AF93BF938091790290917A02A0917B0236
:102F3000B0917C023091780223E0230F2D3758F5B1
:102F40000196A11DB11D2093780280937902909380
:102F50007A02A0937B02B0937C0280917D029091D3
:102F60007E02A0917F02B09180020196A11DB11D49
:102F700080937D0290937E02A0937F02B0938002A3
:102F8000BF91AF919F918F913F912F910F900FBE65
:102F90000F901F90189526E8230F0296A11DB11DD2
:102FA000D2CF1F920F920FB60F9211242F933F93FF
:102FB0004F935F936F937F938F939F93AF93BF9341
:102FC000EF93FF938091B900887F803609F44AC05F
:102FD000F0F5883209F4A5C018F5803109F499C0DC
:102FE000B8F4882309F4F0C0883009F492C0FF9146
:102FF000EF91BF91AF919F918F917F916F915F9171
:103000004F913F912F910F900FBE0F901F901895E9
:10301000883109F486C0803251F78093020214C0CF
:10302000803409F49BC040F48033B9F38833F9F657
:103030008093020285ECAEC0803509F483C08835E8
:1030400009F494C0883499F60E947F12D0CF883951
:1030500009F48AC038F5883729F050F4883611F021
:10306000803729F683E0809329021092010255C02F
:10307000883809F479C0803919F0803809F0B7CF61
:1030800080910102803208F06FC0E091010281E07E
:103090008E0F809301028091BB00F0E0EF51FE4F54
:1030A00080833BC0803B39F0D0F4803A09F477C08C
:1030B000883A09F09CCF84E0809329021092E001C5
:1030C0001092DF01F0E0E0E009958091DF018111CD
:1030D0000FC081E08093DF011092BF0109C0803CE6
:1030E00009F4A8CF883C09F4A5CF883B09F07FCF2D
:1030F000E091E00181E08E0F8093E001F0E0E15487
:10310000FE4F80818093BB009091E0018091DF01B0
:1031100029C0809125028093BB0085EC8093BC0080
:1031200066CF9091240280912302981758F5E09180
:10313000240281E08E0F80932402F0E0ED5FFD4FCA
:103140008081E9CFE091240281E08E0F80932402F8
:103150008091BB00F0E0ED5FFD4F808390912402F1
:10316000809123029817C8F285E8D8CFE091240215
:1031700081E08E0F809324028091BB00F0E0ED5F30
:10318000FD4F80838091280281115ECF81E0809382
:10319000270284EA8093BC001092290228CF8091F4
:1031A0000102803230F4E0910102F0E0EF51FE4F75
:1031B00010826091010270E081EE91E0F0E0E0E0C9
:1031C00009951092010236CF109202023DCF1F9254
:1031D0000F920FB60F9211242F933F934F935F934B
:1031E0006F937F938F939F93AF93BF93CF93EF93FF
:1031F000FF93C6B1C0FF11C080919E0180FD0DC03C
:103200000E94D409609367027093680280936902F8
:1032100090936A0281E080936B02C0939E01FF91BC
:10322000EF91CF91BF91AF919F918F917F916F91CE
:103230005F914F913F912F910F900FBE0F901F9074
:1032400018951F920F920FB60F9211242F933F9350
:103250004F935F936F937F938F939F93AF93BF939E
:10326000EF93FF9380918702909188020E9430161D
:10327000FF91EF91BF91AF919F918F917F916F914E
:103280005F914F913F912F910F900FBE0F901F9024
:1032900018951F920F920FB60F9211242F933F9300
:1032A0004F935F936F937F938F939F93AF93BF934E
:1032B000EF93FF9380918502909186020E943016D1
:1032C000FF91EF91BF91AF919F918F917F916F91FE
:1032D0005F914F913F912F910F900FBE0F901F90D4
:1032E0001895CF93DF93109298021092970288EE70
:1032F00093E0A0E0B0E08093990290939A02A093AB
:103300009B02B0939C0285E491E090939602809397
:1033100095021092A4021092A30220E830E03093AC
:10332000A6022093A50280E490E09093A8028093E7
:10333000A7023093AA022093A9029093AC02809333
:10334000AB021092B7021092AE021092AD02109230
:10335000B0021092AF0281E08093B6028093B50272
:103360002FEF3FEF3093B4022093B3023093B202B9
:103370002093B1028093B8021092B9021092BB025E
:103380001092BA0287E591E09093A2028093A10285
:103390001092BD021092BC0285E992E09093BF02A8
:1033A0008093BE021092C1021092C0028FEF8093F0
:1033B000C5028093C6028093C7028093C80280939F
:1033C000C90280E89AE1A6E0B0E08093D60290932B
:1033D000D702A093D802B093D90280EA96E8A1E080
:1033E000B0E08093DA029093DB02A093DC02B0930A
:1033F000DD0280E58093DF021092E00262E082E06D
:103400000E942C0962E084E00E942C09EDE3F1E1C6
:10341000E491F0E0EE0FFF1FEF5CFE4EA591B4913A
:10342000B0938A02A0938902EFE1F1E144914093C5
:103430008D02EFE3F1E1E491F0E0EE0FFF1FEF5CAE
:10344000FE4EC591D491D0938C02C0938B02E1E2E1
:10345000F1E1E491E0938E021092900210929102B9
:1034600010929202109293022BE33FE1C90101975F
:10347000F1F79C91842F892391E009F490E08881F1
:10348000E82309F0926090938F0289E892E090938C
:10349000860280938502809169008C7F8160809391
:1034A0006900E89A81E080939402DF91CF910895BA
:1034B000CF93DF93CDB7DEB7CE59D1090FB6F894CD
:1034C000DEBF0FBECDBF789484B5826084BD84B565
:1034D000816084BD85B5826085BD85B5816085BD0F
:1034E00080916E00816080936E00109281008091C7
:1034F000810082608093810080918100816080934F
:103500008100809180008160809380008091B10073
:1035100084608093B1008091B00081608093B0009E
:1035200080917A00846080937A0080917A00826032
:1035300080937A0080917A00816080937A008091F4
:103540007A00806880937A001092C1008091C00256
:103550009091C102892B11F10E9487162091A70238
:103560003091A8028091A5029091A60221323105E6
:103570000CF04CC1B9016052710977FF02C06F5F56
:103580007F4F759567958357910997FD019600E2E6
:1035900010E023E730E04AE25BE04BC12091A70254
:1035A0003091A802C901079697FD0796B3E095955B
:1035B0008795BA95E1F72091A5023091A6028C017A
:1035C000029FC001039F900D129F900D11240E9435
:1035D000A7259093C1028093C002892B09F0BCCF2C
:1035E0000E94871661E083E00E942C0961E085E07B
:1035F0000E942C0961E086E00E942C0961E087E0CE
:103600000E942C0961E088E00E942C0961E089E0B9
:103610000E942C0961E08AE00E942C0961E08BE0A5
:103620000E942C0962E08CE00E942C0961E08DE090
:103630000E942C0960E08EE00E942C0980916800B5
:1036400082608093680080916C00816080936C0040
:103650008091B100887F8093B1008091B10081603A
:103660008093B10080918100887F80938100809158
:1036700081008160809381000E94D40960933002B0
:1036800070933102809332029093330290E080E095
:103690000E94DE24182F88310CF4D3C217E1109356
:1036A0006E0282E090E00E94E624D82EE92E8093FC
:1036B00006019093070184E090E00E94E624F82E32
:1036C000092F809308019093090186E090E00E9401
:1036D000E6242D2D3E2D211544E0340714F02FEF64
:1036E00033E037FF02C030E020E030930701209341
:1036F00006012F2D302F211554E0350714F02FEF40
:1037000033E037FF02C030E020E03093090120931E
:1037100008019C018115944014F02FEF33E037FF2E
:1037200002C030E020E030930B0120930A010E9498
:10373000721670930D0160930C01812F859585950C
:10374000859580936D021770109305010E94D4092E
:1037500060932C0270932D0280932E0290932F027F
:1037600044244A94E3E05E2E612C712CE1E1F1E106
:103770008491E9E2F1E11491E7E4F1E1049100239D
:1037800009F463C281110E94D508E02FF0E0EE0F2A
:10379000FF1FEF5CFE4EA591B4918C91182391E030
:1037A00080E009F490E0092F182F80910E01882302
:1037B00011F40C9465240115110511F00C94982452
:1037C0000E94D4096093740270937502809376020C
:1037D00090937702109273020E94D409C0907402F1
:1037E000D0907502E0907602F09077026C197D0916
:1037F0008E099F096F3F71058105910510F40C94A6
:10380000982481E0809373020C949824B901605449
:10381000710977FF02C06F5F7F4F7595679582557D
:10382000910997FD019600E410E022E530E04AE0BE
:103830005DE0959587950E94701182E08093C302A8
:103840008091BE029091BF02892B09F4F5C08CE3F0
:103850008093C20210922B0210922A0210928202CE
:103860001092810280917E008F7C80937E00109266
:10387000290281E0809328021092270261E082E110
:103880000E94FE0861E083E10E94FE088091B90079
:103890008E7F8093B9008091B9008D7F8093B900AD
:1038A00088E48093B80085E48093BC008091C902CD
:1038B00087FD1EC061E00E942C0961E08091C90271
:1038C0000E94FE0861E070E080E090E00E94A209A2
:1038D00060E08091C9020E94FE086AE070E080E02A
:1038E00090E00E94A20961E08091C9020E94FE0856
:1038F0008091BE029091BF02892B09F45CC1209196
:10390000D6023091D7024091D8025091D90260E09E
:1039100074E284EF90E00E94412520513109410971
:10392000510956954795379527952093B80064E03F
:1039300086E29BE00E9479136091A702615081EAC0
:1039400092E00E942E1464E082E29BE00E947913D0
:103950008091C30260E1813009F064E181EA92E084
:103960000E942E1464E08EE19BE00E9479138FE8A0
:103970008093DE028091A5029091A6028038910585
:1039800009F030C18091A7029091A802803491057E
:1039900009F038C18091C302813009F046C18FE936
:1039A0008093DE0212E16AED81EA92E00E942E1419
:1039B000612F81EA92E00E942E1461E881EA92E090
:1039C0000E942E146091DE0281EA92E00E942E1481
:1039D00069ED81EA92E00E942E148091C30262E2B6
:1039E000813009F061EF81EA92E00E942E1466E0D6
:1039F00088E19BE00E9479138091BE029091BF0202
:103A0000892B09F414C12091DA023091DB02409134
:103A1000DC025091DD0260E074E284EF90E00E94ED
:103A2000412520513109410951095695479537954E
:103A300027952093B800D4CD61E08091C7020E9401
:103A40002C0961E08091C8020E942C098091C70274
:103A5000082E000C990BFC01E55CFE4EE491F0E0B1
:103A6000EE0FFF1FE550FF4E259134913093CF02AA
:103A70002093CE02FC01E35EFE4EE491E093D4027B
:103A80008091C802082E000C990BFC01E55CFE4EEB
:103A9000E491F0E0EE0FFF1FE550FF4EA591B491C9
:103AA000B093D102A093D002FC01E35EFE4EE491FC
:103AB000E093D5028C91E82BEC938091BC0290911D
:103AC000BD02892B09F434C01FB7F89480912602F7
:103AD000811127C0E5E4F1E18491E7E2F1E19491FD
:103AE000E82FF0E0EE0FFF1FEF50FF4EA591B491CD
:103AF000EC91E92321F461E08AE00E94FE0861E094
:103B00008AE00E942C098CB580618CBD8CB58064E4
:103B10008CBD61E08DE00E942C0961E08BE00E9489
:103B20002C09809126028F5F809326021FBFBECE94
:103B300061E08091C5020E942C0961E08091C6027B
:103B40000E942C098091C502082E000C990BFC01E3
:103B5000E55CFE4EE491F0E0EE0FFF1FE550FF4EF6
:103B6000259134913093CB022093CA02FC01E35E8D
:103B7000FE4EE491E093D2028091C602082E000C22
:103B8000990BFC01E55CFE4EE491F0E0EE0FFF1FA7
:103B9000E550FF4EA591B491B093CD02A093CC0215
:103BA000FC01E35EFE4EE491E093D3028C91E0953C
:103BB000E823EC937BCE8091BC029091BD02892BCF
:103BC00031F08091DF029091E0020E946B0CE09155
:103BD000D002F091D10290818091D5028095892305
:103BE0008083A5CE8036910589F48091A7029091BB
:103BF000A802409739F48091C302813029F480E112
:103C00008093DE0212E0CFCE8FEAFACF80349105A6
:103C1000C9F78091A7029091A802809799F78091A7
:103C2000C302813011F480E1BBCE8FECB9CEE091BC
:103C3000D002F091D10280819091D502892B8083AE
:103C4000CFCC87FF2CCD10E02ACD10E000E0ADCD29
:103C5000109272025EC6322F2F5F8D3FFFEF9F07DB
:103C600014F40496F8CF30936E0290937002809310
:103C70006F02383114F010926E0280916E0287FF4D
:103C800003C087E180936E0290E080E00E94DE2412
:103C9000D82E82E090E00E94E6247C0184E090E04F
:103CA0000E94E6248C0186E090E00E94E624609168
:103CB0006E02262F062E000C330BD2161306A9F423
:103CC0002091060130910701E216F30671F420916C
:103CD0000801309109010217130739F420910A01F4
:103CE00030910B0182179307E1F090E080E00E9491
:103CF000EC24609106017091070182E090E00E943F
:103D0000FA24609108017091090184E090E00E941A
:103D1000FA2460910A0170910B0186E090E00E9404
:103D2000FA2400916E02102F07FF02C017E0100F57
:103D300015951595159510936D02077807FF03C02B
:103D40000150086F0F5F083008F007E0009305018D
:103D500080910401181789F1123009F0E3C160E085
:103D600089E00E94FE0865E070E080E090E00E943B
:103D7000A20961E088E00E94FE0865E070E080E052
:103D800090E00E94A20961E08DE00E94FE0865E0DB
:103D900070E080E090E00E94A20960E08DE00E9467
:103DA000FE0865E070E080E090E00E94A20961E01A
:103DB0008DE00E94FE0810930401602F617087E07F
:103DC0000E94FE0810E0B80175956795617086E065
:103DD0000E94FE08B801759567957595679585E011
:103DE0000E94FE0806E0C02E01E0D02E0EE311E096
:103DF000C356DF4F19830883CD59D04081E0282E68
:103E000081E0382E9CE0892E91E0992E5101F60137
:103E1000019111916F01C356DF4FE881F981CD59AE
:103E2000D040F190C356DF4FF983E883CD59D0409D
:103E30008F2D0E946809800F911F20E030E0A901BA
:103E400097FD15C08F2D0E946809800F911F2FEFDD
:103E500033E040E050E0811594404CF48F2D0E94F7
:103E60006809800F911F9C01990F440B550BAAEA1A
:103E7000B0E00E942E252FEF33E040E050E00E949A
:103E80000F25F50121935F018C149D0409F0BFCF2C
:103E90000E94FF1680930001FC01FF27EE0FFF1F19
:103EA000EA5FFE4FA081B18127E030E00E948625C5
:103EB000A30192010E940F25273008F026E02093ED
:103EC0006C0280916B02882309F495C1F89480916B
:103ED000670290916802A0916902B0916A02109203
:103EE0006B02789440916302509164026091650284
:103EF000709166028C019D01041B150B260B370B7C
:103F0000B901A8018093630290936402A0936502B3
:103F1000B0936602D901C8014497A109B1098D384F
:103F20009F40A105B10508F066C1E0916202809151
:103F30005D02A82FB0E09D01220F331F220F331F17
:103F4000E83008F40BC1C0905E02D0905F02E090B0
:103F50006002F0906102F901E35CFD4F8080918086
:103F6000A280B380C818D908EA08FB08C0925E0294
:103F7000D0925F02E0926002F0926102235C3D4FBA
:103F8000F901408351836283738300915E02109133
:103F90005F022091600230916102CB01BA01600F93
:103FA000711F821F931F60935E0270935F02809364
:103FB0006002909361029D012F5F3F4F277033276E
:103FC00020935D0200916202202F30E050E040E03B
:103FD0000E9441252093390230933A0240933B02DC
:103FE00050933C0280E1E5E1F1E0DE0111960190A1
:103FF0000D928A95E1F70E94FF168F3F9807B9F15D
:1040000020916D02E0910501F0E0EE0FFF1F2111FC
:10401000B1C0009709F0A6C0E65AFF4E65917491B1
:10402000CE014F960E94D7242AA1022E000C330BFA
:104030002053310944E6429FC001439F900D112453
:104040002BA1022E000C330B205331094AE0429F72
:104050006001439FD00C11248C0D9D1DCCA00C2C15
:10406000000CDD0800E3C01AD1088C0D9D1D809066
:10407000390290903A02A0903B02B0903C026C0151
:10408000990FEE08FF0810E081149104A104B10417
:1040900009F48CC010916C02E12FF0E0EE0FFF1FCD
:1040A000329621E030E02C0F3D1FE20FF31F112369
:1040B00009F47CC0B291A291A50194010E94392516
:1040C000C616D706E806F90608F070C01150EFCF03
:1040D000022F0150110BC801209173022223F9F025
:1040E00022E030E0880F991FFC01EA5FFE4F429FFB
:1040F000B001439F700D529F700D112480819181FA
:10410000861B970B811514E0910714F08FEF93E055
:1041100097FF02C090E080E09183808302CE20E18F
:1041200030E0E0CF113069F460E088E00E94FE08E2
:1041300065E070E080E090E00E94A20961E089E023
:104140001ACE111138CE60E08DE00E94FE0860E0CA
:1041500088E00E94FE0860E089E02BCEEF5FE093EC
:1041600062020CCF019719F4EA5DFF4E57CFEA5077
:10417000F04F54CF213069F4009719F4E65BFF4EFD
:104180004DCF019719F4EA5EFF4E48CFEA51F04F48
:1041900045CF009719F4E65CFF4E40CF019719F424
:1041A000EA5FFF4E3BCFEA52F04F38CFE12FF0E00D
:1041B000EE0FFF1F41E050E04C0F5D1FE40FF51FB5
:1041C000A081B181A50194010E9439256093350237
:1041D00070933602809337029093380210936C02EA
:1041E000DB012AEA30E00E948625A70196010E94A1
:1041F0000F25209334020E94D4090091630210918C
:1042000064022091650230916602601B710B820B83
:10421000930B693E73408105910500F110925D0298
:104220001092620210925E0210925F02109260027F
:10423000109261021092390210923A0210923B02DF
:1042400010923C02109234020E94D40960936302DF
:10425000709364028093650290936602E09100017E
:10426000F0E0EF5FFE4F8091340280830BE3A02EDD
:1042700001E0B02E84E0E82E81E0F82E91E0C92E16
:1042800091E0D92EF60181906F01082D10E0F50123
:1042900091905F0161E0892D0E942C0901151105A3
:1042A00029F460E0892D0E94FE082DC00F3F110502
:1042B00011F461E0F7CFE92DF0E0EB5FFE4EE49101
:1042C000E33009F4A1C048F4E130C9F0E23009F468
:1042D00096C0003811056CF7E4CFE73009F49EC0B2
:1042E000E83009F4A3C0E430A1F780918000806237
:1042F0008093800010938B0000938A0004C084B5E3
:10430000806884BD87BCEC14FD0409F0BBCF8091AC
:104310007102882309F492C0109271020E94D4099C
:104320006093300270933102809332029093330293
:104330000E94D40900912C0210912D0220912E028E
:1043400030912F02601B710B820B930B683B7B40FB
:104350008105910508F08EC00E94871682E0809347
:10436000B5028093B60281E090E09093B40280930E
:10437000B3029093B2028093B10288E090E09093F0
:10438000AE028093AD029093B0028093AF0288EEAC
:1043900090E10E947B0F83E891E00E94A71680E2E3
:1043A00090E09093AE028093AD0288E190E090930C
:1043B000B0028093AF0280EE90E10E947B0F83E811
:1043C00091E00E94A71681E08093B5028093B60227
:1043D00080E190E09093AE028093AD028CE290E099
:1043E0009093B0028093AF0282ED90E10E947B0F28
:1043F0008EEC90E10E947B0F0E94901433C084B534
:10440000806284BD88BC7FCF80918000806880936B
:104410008000109389000093880075CF8091B000D0
:1044200080688093B0008092B3006DCF8091B0001F
:1044300080628093B0008092B40065CF0E94D4095E
:1044400000913002109131022091320230913302FA
:10445000601B710B820B930B64367105810591050E
:1044600008F05ACF80E090E0892B09F47FC90E94C0
:1044700000007CC90E94871682E08093B502809379
:10448000B60281E090E09093B4028093B3029093DF
:10449000B2028093B10282E090E09093AE028093EA
:1044A000AD021092B0021092AF0280916D028111A4
:1044B00062C1E0910501F0E0EE0FFF1FE254FF4EF4
:1044C00065917491CE0187589F4F0E94D724CE01E9
:1044D00087589F4F0E94F81681E08093B502809321
:1044E000B60282E090E09093AE028093AD0284E148
:1044F00090E09093B0028093AF0280916D028111A1
:104500004FC1E0910501F0E0EE0FFF1FE257FF4EB3
:1045100065917491CE01855A9F4F0E94D724CE0198
:10452000855A9F4F0E94F81680E790E09093AE0264
:104530008093AD021092B0021092AF02C0906E0252
:104540000C2C000CDD08EE08FF084AE0C701B6019C
:10455000F7FE0DC06DE281EA92E00E94A90E662787
:104560007727CB016C197D098E099F094AE00E94CB
:10457000B41688E690E09093AE028093AD0280E19D
:1045800090E09093B0028093AF028AE690E10E949F
:104590007B0F8091720281110FC0EE24E394F12C05
:1045A0000DE010E026E130E04DE050E066E670E01E
:1045B00081EA92E00E94960F82E090E09093AE0232
:1045C0008093AD0282E290E09093B0028093AF02BC
:1045D00080916D028111F9C0E0910501F0E0EE0FCC
:1045E000FF1FE65AFF4E65917491CE01CD960E9451
:1045F000D72443E050E06FE771E0CE01CD960E94F2
:10460000D826892B09F0F6C086E390E10E947B0F43
:1046100082E090E09093AE028093AD028CE290E055
:104620009093B0028093AF0280916D028111E7C038
:10463000E0910501F0E0EE0FFF1FEA5DFF4E65918E
:104640007491CE014F960E94D724CE014F960E94BE
:10465000F81682E090E09093AE028093AD0286E37C
:1046600090E09093B0028093AF0280916D0281112F
:10467000DBC0E0910501F0E0EE0FFF1FEA50F04FC4
:1046800065917491CE0101960E94D724CE010196C6
:104690000E94F816809172029FEF980F9330B8F441
:1046A0008150990B2AE0289FA001299F500D1124C9
:1046B000405E5F4FEE24E394F12C0CE010E020E428
:1046C00030E06CE370E081EA92E00E94960F86E0B1
:1046D000E5E2F1E0DE01A956BF4F01900D928A9507
:1046E000E1F78E0109561F4F4801B12CA12CF401AE
:1046F000C190D1904F01809100018A151B0409F0EF
:10470000BDC08EE390E09093AE028093AD02D09254
:10471000B002C092AF020E94D409009167021091CA
:1047200068022091690230916A02E0916C02F0E027
:10473000EE0FFF1FE55DFE4F40815181601B710B45
:10474000820B930B693E73408105910508F481C08B
:10475000CA010E94F8168FEC9FE00E947B0F0FEFBA
:10476000A01AB00A1FEF211A310A23E0A216B104E1
:1047700009F0BDCF41CE813041F4E0910501F0E078
:10478000EE0FFF1FE255FF4E9BCE823009F09FCE09
:10479000E0910501F0E0EE0FFF1FE256FF4E90CED4
:1047A000813041F4E0910501F0E0EE0FFF1FE25887
:1047B000FF4EAECE823009F0B2CEE0910501F0E0BE
:1047C000EE0FFF1FE259FF4EA3CE813041F4E0917E
:1047D0000501F0E0EE0FFF1FE65BFF4E04CF8230D5
:1047E00009F007CFE0910501F0E0EE0FFF1FE65C56
:1047F000FF4EF9CECE01CD960E94F81609CF81303A
:1048000041F4E0910501F0E0EE0FFF1FEA5EFF4E7C
:1048100016CF823009F019CFE0910501F0E0EE0FDC
:10482000FF1FEA5FFF4E0BCF813041F4E09105019D
:10483000F0E0EE0FFF1FEA51F04F22CF823009F077
:1048400025CFE0910501F0E0EE0FFF1FEA52F04F97
:1048500017CFCA010E94F8168DEC9FE00E947B0FD3
:104860006091350270913602809137029091380242
:104870004AE00E94B4168AEC9FE06FCFF10180817C
:10488000FCE38F9FC00111246AEA70E00E94722548
:104890009B01A6014F5F5F4FEE24E394F12C02E0F1
:1048A00010E06EE370E081EA92E00E948A10A601B7
:1048B0004D5F5F4F01E010E02CE330E06EE370E00D
:1048C00081EA92E00E94960F4ACF0130110511F063
:1048D0000C94EC1BC0907402D0907502E0907602AC
:1048E000F09077020E94D4096C197D098E099F0906
:1048F0006F3F710581059105C8F4809173028111A4
:1049000015C0809172028F5F843008F0A1C9809336
:10491000720281E0809371020E94721670930D0101
:1049200060930C011092700210926F021092730249
:10493000017000930E010E94721620910C013091BB
:104940000D012617370709F4ECC9AB01421B530BC5
:1049500070930D0160930C0181E08093710280914E
:104960006F0290917002840F951F90937002809354
:104970006F02209172022111ABCB20916E023FEFAA
:10498000320F843091050CF466C90497232FF7CFBA
:1049900087E591E09093A2028093A1028091C002EA
:1049A0009091C102009711F00C9443260895FB01E9
:1049B000DC0105900D920020E1F70895F999FECFF2
:1049C00092BD81BDF89A992780B50895A8E1B0E01D
:1049D00042E050E00C940125262FF999FECF1FBA32
:1049E00092BD81BD20BD0FB6F894FA9AF99A0FBE18
:1049F000019608950E94EC24272F0C94ED24DC01ED
:104A0000CB01FC01F999FECF06C0F2BDE1BDF89AD9
:104A1000319600B40D9241505040B8F70895052EDC
:104A200097FB1EF400940E94262557FD07D00E9494
:104A3000412507FC03D04EF40C9426255095409553
:104A4000309521953F4F4F4F5F4F0895909580953A
:104A5000709561957F4F8F4F9F4F08950E946325FA
:104A6000A59F900DB49F900DA49F800D911D1124C2
:104A70000895B7FF0C942E250E942E25821B930BC0
:104A80000895A1E21A2EAA1BBB1BFD010DC0AA1F8F
:104A9000BB1FEE1FFF1FA217B307E407F50720F0A7
:104AA000A21BB30BE40BF50B661F771F881F991F22
:104AB0001A9469F760957095809590959B01AC016B
:104AC000BD01CF010895A29FB001B39FC001A39F74
:104AD000700D811D1124911DB29F700D811D112437
:104AE000911D089597FB072E16F4009407D077FDCB
:104AF00009D00E948D2507FC05D03EF49095819544
:104B00009F4F0895709561957F4F08950E9463258A
:104B1000B7FF0895821B930B0895AA1BBB1B51E19D
:104B200007C0AA1FBB1FA617B70710F0A61BB70B1D
:104B3000881F991F5A95A9F780959095BC01CD01C2
:104B40000895EE0FFF1F0590F491E02D09940F9347
:104B50001F93CF93DF938230910510F482E090E0B1
:104B6000E091E302F091E40230E020E0B0E0A0E068
:104B7000309799F42115310509F44AC0281B390BE7
:104B800024303105D8F58A819B816115710589F141
:104B9000FB0193838283FE0111C040815181028118
:104BA000138148175907E0F04817590799F41097EF
:104BB00061F012960C93129713961C933296CF01C4
:104BC000DF91CF911F910F9108950093E30210930D
:104BD000E402F4CF2115310551F04217530738F0A4
:104BE000A901DB019A01BD01DF01F801C1CFEF018D
:104BF000F9CF9093E4028093E302CDCFFE01E20F60
:104C0000F31F819391932250310939832883D7CFA1
:104C10002091E1023091E202232B41F42091110115
:104C2000309112013093E2022093E10220910F01B2
:104C3000309110012115310541F42DB73EB7409157
:104C4000130150911401241B350BE091E102F09106
:104C5000E202E217F307A0F42E1B3F0B28173907D7
:104C600078F0AC014E5F5F4F2417350748F04E0FC8
:104C70005F1F5093E2024093E102819391939FCF93
:104C8000F0E0E0E09CCFCF93DF930097E9F0FC01E8
:104C9000329713821282A091E302B091E402ED01F7
:104CA00030E020E01097A1F420813181820F931F22
:104CB0002091E1023091E2022817390709F061C022
:104CC000F093E202E093E102DF91CF910895EA01CF
:104CD000CE17DF07E8F54A815B819E01411551053A
:104CE000B1F7E901FB83EA8349915991C40FD51FBC
:104CF000EC17FD0761F4808191810296840F951F66
:104D0000E90199838883828193819B838A83F0E080
:104D1000E0E012968D919C9113970097B9F52D9133
:104D20003C911197CD010296820F931F2091E102D1
:104D30003091E2022817390739F6309751F5109271
:104D4000E4021092E302B093E202A093E102BCCF2E
:104D5000D383C28340815181840F951FC817D9071F
:104D600061F44E5F5F4F88819981480F591F5183CD
:104D700040838A819B81938382832115310509F0C9
:104D8000B0CFF093E402E093E3029ECFFD01DC019B
:104D9000C0CF13821282D7CF81E090E0F8940C94B8
:104DA000E626DC0101C06D9341505040E0F70895C4
:104DB000FB01DC014150504030F08D910190801991
:104DC00019F40020B9F7881B990B089518E0C9EA77
:104DD000D8E004C0FE010E94A1252196CA3AD1075D
:064DE000C9F7F894FFCFB3
:104DE600FF969696FF0100020002000219FC0100E0
:104DF60000E5028000010002000300040005000631
:104E0600000700080024002E003800860189018C66
:104E1600018F019201950198019B010B0A03000283
:104E26000100000000F312C6122D16D408BF12B0FE
:104E360012A21200000000A90EE0092D167E12B47F
:104E46000BD408691141115D115111D111D4086FAC
:104E56000CD715240B6D0B8A106D10F50F960F638A
:104E66006C6B000D0A0078310078320078330078D8
:0E4E7600340078350078360078370078380040
:00000001FF
