:100000000C9462000C948A000C948A000C948A0070
:100010000C948A000C948A000C948A000C948A0038
:100020000C948A000C948A000C948A000C948A0028
:100030000C948A000C948A000C948A000C948A0018
:100040000C9431050C948A000C94A1050C947B054A
:100050000C948A000C948A000C948A000C948A00F8
:100060000C948A000C948A000000000024002700F1
:100070002A0000000000250028002B0000000000DE
:1000800023002600290004040404040404040202DA
:100090000202020203030303030301020408102007
:1000A0004080010204081020010204081020000012
:1000B0000008000201000003040700000000000027
:1000C0000000D30511241FBECFEFD4E0DEBFCDBFAB
:1000D00011E0A0E0B1E0EAEDF2E202C005900D927D
:1000E000AE31B107D9F722E0AEE1B1E001C01D9217
:1000F000AD3AB207E1F710E0C2E6D0E004C02197C4
:10010000FE010E945111C136D107C9F70E946D0648
:100110000C946B110C940000FC01A089B18982E061
:100120008C93A485B5851C92A685B7858FE38C93A7
:10013000108EA489B58986E08C93A289B3898C91AD
:1001400080618C93A289B3898C9188608C93A289F9
:10015000B3898C9180688C930288F389E02D80812B
:100160008F7D8083089581E480937C0080917A0064
:10017000806480937A0080917A0086FDFCCF809124
:100180007800909179000895E0913E01F0913F014F
:10019000309719F089E791E0099580917A01823FC3
:1001A00009F4BAC090F5803C09F499C0B8F48039DC
:1001B00009F44FC040F4E0914201F09143018038CE
:1001C00009F44BC00895803A09F484C0E0914801D5
:1001D000F0914901803B09F440C00895803E09F444
:1001E00062C040F4E0914C01F0914D01803D09F472
:1001F0007AC00895803F09F47DC0E0915201F091EA
:100200005301813F09F49BC008958A3FC1F1A8F4CE
:10021000863F09F499C040F4E0915601F0915701EE
:10022000833F09F48CC00895883F09F1E0915E0195
:10023000F0915F01893FF9F008958C3F51F120F171
:100240008E3F61F1E0916601F09167018F3F99F077
:100250000895E0914401F0914501309709F479C087
:1002600040917C0160917B01809179010994E0913A
:100270005A01F0915B01309709F46BC00994E09149
:100280005C01F0915D01F7CFE0916001F0916101B7
:10029000F2CFE0916201F0916301EDCFE091640152
:1002A000F0916501E8CFE0914E01F0914F01309758
:1002B00009F44FC060917C0120E8629FB0011124D5
:1002C00060787F7380917B018F77682B705280916B
:1002D00079010994E0914601F0914701BECFE09188
:1002E0004A01F0914B013097A1F160917B0180911F
:1002F00079010994E0915001F0915101309749F151
:1003000060917B0170917C016138710510F060E8AB
:1003100070E08DE791E00994E0915401F09155016E
:100320003097B9F080917C0120E8829FC0011124B0
:1003300080789F7320917B012F77822B09943097CF
:1003400041F080917B010994E0915801F0915901AD
:1003500092CF0895833081F028F4813099F0823073
:10036000A9F008958730A9F08830C9F08430B1F43D
:10037000809180008F7D03C0809180008F77809373
:100380008000089584B58F7784BD089584B58F7DEE
:10039000FBCF8091B0008F778093B000089580915B
:1003A000B0008F7DF9CFCF93DF93282F30E0F90194
:1003B000E255FF4F8491F901E656FF4FD491F901C0
:1003C000EA57FF4FC491CC23A1F081110E94AA01EA
:1003D000EC2FF0E0EE0FFF1FE458FF4FA591B49112
:1003E000EC91ED2381E090E009F480E0DF91CF9182
:1003F000089580E090E0FACF1F93CF93DF93282FEA
:1004000030E0F901E255FF4F8491F901E656FF4FC4
:10041000D491F901EA57FF4FC491CC23A9F0162FCC
:1004200081110E94AA01EC2FF0E0EE0FFF1FEE58A1
:10043000FF4FA591B4918FB7F894EC91111108C0BA
:10044000D095DE23DC938FBFDF91CF911F9108956C
:10045000DE2BF8CFCF93DF9390E0FC01E656FF4F01
:1004600024918A579F4FFC0184918823C9F090E022
:10047000880F991FFC01E859FF4FA591B491FC0129
:10048000EE58FF4FC591D49161110DC09FB7F894FC
:100490008C91209582238C938881282328839FBF69
:1004A000DF91CF910895623051F49FB7F8943C9159
:1004B000822F809583238C93E8812E2BEFCF8FB7EB
:1004C000F894EC912E2B2C938FBFEACF1F93CF93F0
:1004D000DF93182FEB0161E00E942A02209739F484
:1004E00060E0812FDF91CF911F910C94FC01CF3FF1
:1004F000D10511F461E0F5CFE12FF0E0E255FF4FB7
:10050000E491E33031F140F4E130B1F0E230E1F078
:10051000C038D1057CF7E4CFE73029F1E83059F154
:10052000E430B1F780918000806280938000D093A6
:100530008B00C0938A0004C084B5806884BDC7BDA9
:10054000DF91CF911F91089584B5806284BDC8BDAD
:10055000F7CF80918000806880938000D0938900DD
:10056000C0938800EDCF8091B00080688093B00088
:10057000C093B300E5CF8091B00080628093B0005B
:10058000C093B400DDCF3FB7F89480913A019091C9
:100590003B01A0913C01B0913D0126B5A89B05C04F
:1005A0002F3F19F00196A11DB11D3FBFBA2FA92FF2
:1005B000982F8827BC01CD01620F711D811D911DEF
:1005C00042E0660F771F881F991F4A95D1F708955B
:1005D0002FB7F894609136017091370180913801FE
:1005E000909139012FBF0895AF92BF92CF92DF92C1
:1005F000EF92FF920F931F93CF93DF936C017B01D8
:100600008B01040F151FEB015E01AE18BF08C01768
:10061000D10759F06991D601ED91FC910190F081DB
:10062000E02DC6010995892B79F7C501DF91CF919E
:100630001F910F91FF90EF90DF90CF90BF90AF9000
:100640000895FC01538D448D252F30E0842F90E0D8
:10065000821B930B541710F0CF96089501970895BD
:10066000FC01918D828D981761F0A28DAE0FBF2F86
:10067000B11D5D968C91928D9F5F9F73928F90E0DC
:1006800008958FEF9FEF0895FC01918D828D98174B
:1006900031F0828DE80FF11D858D90E008958FEF88
:1006A0009FEF0895FC01918D228D892F90E0805C51
:1006B0009F4F821B91098F73992708958EE092E0D6
:1006C0000E94520321E0892B09F420E0822F089533
:1006D00080E090E0892B29F00E945E0381110C9448
:1006E00000000895FC01A48DA80FB92FB11DA35AD5
:1006F000BF4F2C91848D90E001968F739927848F42
:10070000A689B7892C93A089B1898C918370806464
:100710008C93938D848D981306C00288F389E02D05
:1007200080818F7D80830895EF92FF920F931F93B6
:10073000CF93DF93EC0181E0888F9B8D8C8D981394
:100740001AC0E889F989808185FF15C09FB7F894A0
:10075000EE89FF896083E889F989808183708064EC
:1007600080839FBF81E090E0DF91CF911F910F9137
:10077000FF90EF900895F62E0B8D10E00F5F1F4F46
:100780000F731127E02E8C8D8E110CC00FB607FC55
:10079000FACFE889F989808185FFF5CFCE010E94E3
:1007A0007203F1CFEB8DEC0FFD2FF11DE35AFF4FDC
:1007B000F0829FB7F8940B8FEA89FB898081806271
:1007C000CFCFCF93DF93EC01888D8823B9F0AA892E
:1007D000BB89E889F9898C9185FD03C0808186FDFC
:1007E0000DC00FB607FCF7CF8C9185FFF2CF80814B
:1007F00085FFEDCFCE010E947203E9CFDF91CF914B
:100800000895DC018D919C91DC01ED91FC910190AA
:10081000F081E02D09948D3F60F48A3F10F4883F09
:1008200051F4682F80916801909169010E94010440
:1008300002C08E3FB0F78EE391E008951F93CF93EF
:10084000DF93C82F162FD42F813E30F52150203151
:10085000E8F487FF1BC0622F682B8091680190919C
:1008600069010E940104612F6F7780916801909166
:1008700069010E940104CF7EC03C41F06D2F6F776B
:1008800080916801909169010E9401048EE391E0DA
:10089000DF91CF911F910895883FC0F30E940B0410
:1008A000F5CF87FF0AC09CE0980F923030F08D3F63
:1008B00021F0803F18F4807F089580E00895982FFC
:1008C0009F7E282F2F7C203839F0803E29F081E050
:1008D000903C19F080E0089581E008958EBD0000FD
:1008E0000DB407FEFDCF8EB50895CF92DF92EF9243
:1008F000FF92CF93DF93EC018EE00E94D301892B0E
:10090000A9F50E94B300BC01990F880B990B0E94B6
:10091000441020E030E046E154E40E949A0F2DECB0
:100920003CEC4CEC5EE30E94D0102DEC3CEC4CE433
:100930005FE30E942E0F6B017C01BE01DD0F880B6F
:10094000990B0E9444109B01AC01C701B6010E94A3
:10095000D0100E940C10EB01C11580E1D80714F0F3
:10096000CFEFDFE0D7FF02C0D0E0C0E061E089E078
:100970000E94FC0160E08AE00E94FC018D2F806BE8
:100980000E946E048C2F0E946E0461E08AE00E9437
:10099000FC0160E089E0DF91CF91FF90EF90DF9064
:1009A000CF900C94FC01CF92DF92EF92FF92CF9305
:1009B000DF93EC018EE00E94D301892BA9F50E9400
:1009C000B300BC01990F880B990B0E94441020E0E2
:1009D00030E046E154E40E949A0F2DEC3CEC4CECE4
:1009E0005EE30E94D0102DEC3CEC4CE45FE30E94EF
:1009F0002E0F6B017C01BE01DD0F880B990B0E944D
:100A000044109B01AC01C701B6010E94D0100E94A6
:100A10000C10EB01C11580E1D80714F0CFEFDFE037
:100A2000D7FF02C0D0E0C0E061E089E00E94FC0195
:100A300060E08AE00E94FC018D2F80630E946E04BA
:100A40008C2F0E946E0461E08AE00E94FC0160E04D
:100A500089E0DF91CF91FF90EF90DF90CF900C94E1
:100A6000FC011F920F920FB60F9211242F933F9308
:100A70008F939F93AF93BF938091360190913701ED
:100A8000A0913801B09139013091350123E0230F55
:100A90002D3758F50196A11DB11D20933501809386
:100AA000360190933701A0933801B09339018091BA
:100AB0003A0190913B01A0913C01B0913D0101961A
:100AC000A11DB11D80933A0190933B01A0933C017D
:100AD000B0933D01BF91AF919F918F913F912F9125
:100AE0000F900FBE0F901F90189526E8230F0296C7
:100AF000A11DB11DD2CF1F920F920FB60F921124DC
:100B00002F933F934F935F936F937F938F939F9315
:100B1000AF93BF93EF93FF938EE092E00E94720336
:100B2000FF91EF91BF91AF919F918F917F916F91C5
:100B30005F914F913F912F910F900FBE0F901F909B
:100B400018951F920F920FB60F9211242F938F9327
:100B50009F93EF93FF93E0911E02F0911F0280811B
:100B6000E0912402F091250282FD1BC090818091CA
:100B700027028F5F8F7320912802821741F0E09146
:100B80002702F0E0E25FFD4F958F80932702FF91EF
:100B9000EF919F918F912F910F900FBE0F901F900B
:100BA00018958081F4CFEEE0F2E01382128288EE95
:100BB00093E0A0E0B0E084839583A683B7838FE0C1
:100BC00091E09183808385EC90E09587848784EC25
:100BD00090E09787868780EC90E0918B808B81EC0A
:100BE00090E0938B828B82EC90E0958B848B86ECEB
:100BF00090E0978B868B118E128E138E148EF0934D
:100C0000AC02E093AB02EEE3F1E0118210821382BA
:100C1000128215821482178216821186108613861C
:100C200012861586148617861686118A108A138AEC
:100C3000128A158A148A178A168A118E108E138EBC
:100C4000128E158E148E178E168E11A210A213A25C
:100C500012A215A214A217A216A211A610A68BEA20
:100C600092E093A782A714A615A616A613AA12AA05
:100C700015AA14AA8FEF9FEF97AB86AB91AF80AF09
:100C800083E08093780113AE14AE15AE16AE1092C9
:100C9000FD01EDE7F1E080E8DF011D928A95E9F7BB
:100CA00010920002109201021092020210920302AE
:100CB000109204021092050210920602109207028E
:100CC000109208021092090210920A0210920B026E
:100CD00010920C0210920D020895789484B58260EF
:100CE00084BD84B5816084BD85B5826085BD85B5D0
:100CF000816085BD80916E00816080936E0010924E
:100D000081008091810082608093810080918100C8
:100D10008160809381008091800081608093800059
:100D20008091B10084608093B1008091B0008160B7
:100D30008093B00080917A00846080937A008091E3
:100D40007A00826080937A0080917A00816080933B
:100D50007A0080917A00806880937A001092C100B6
:100D60008EE092E00E948C0061E089E00E942A02FD
:100D700061E08AE00E942A0261E082E00E942A0289
:100D800061E084E00E942A0261E087E00E942A027A
:100D900061E083E00E942A0261E085E00E942A026D
:100DA00061E086E00E942A0262E088E00E942A0256
:100DB00062E08CE00E942A0262E08EE00E942A0239
:100DC00060E08FE00E942A02E0916801F0916901E1
:100DD000808191810E948C0010926A0110926C01B6
:100DE00010926B01109273011092720110927101B6
:100DF000109270018FEF9FEF9093750180937401B3
:100E000090937701809376010E94E802609300023C
:100E10007093010280930202909303021092FD01ED
:100E200010927A011092790110927B0110927C014C
:100E30001092FF011092FE01809178018170826012
:100E4000816080937801CFB7F89480911E01811161
:100E500027C0E0E9F0E08491E4EAF0E09491E82F23
:100E6000F0E0EE0FFF1FE859FF4FA591B491EC9110
:100E7000E92321F461E08AE00E94FC0161E08AE05C
:100E80000E942A028CB580618CBD8CB580648CBDBB
:100E900061E08DE00E942A0261E08BE00E942A025C
:100EA00080911E018F5F80931E01CFBF8CB58F7D17
:100EB0008CBD8CB58C7F8CBD8DB58E7F8DBD8CB57A
:100EC000837F8CBD8CE00E94D301EC0188E00E94FE
:100ED000D30121E030E02C1B3D0B220F281B2F5F9C
:100EE0002093340161E082E00E94FC0161E084E033
:100EF0000E94FC0161E087E00E94FC010E94C302A5
:100F00004B015C01B8EBCB2EBBE0DB2EE12CF12CCE
:100F10000E94C302681979098A099B09683E7340D7
:100F200081059105A8F321E0C21AD108E108F10872
:100F300038EE830E33E0931EA11CB11CC114D10402
:100F4000E104F10429F760E082E00E94FC0160E026
:100F500084E00E94FC0160E087E00E94FC01FEEF5B
:100F6000CF2EFFE0DF2EE12CF12CACE36A2E712CAA
:100F700001E010E0B0906A0150E15B1508F47AC01E
:100F8000E0916801F091690180819181DC01ED912E
:100F9000FC910084F185E02D0995892B09F46AC044
:100FA00080910D028E7F80930D02E0916801F09197
:100FB000690180819181DC01ED91FC910284F385CE
:100FC000E02D0995C82F8D3F09F454C0809172011E
:100FD00090917301009709F0E0C1C0936D01D09129
:100FE0006B018D2F0E9451040E945F04882351F0F1
:100FF000C7FD08C0D0936D01C0936E0110937301BB
:1010000000937201C0916D018C2F0E945104813FA9
:1010100009F48DC108F021C1803B39F068F48039B2
:1010200021F0803A11F0803879F423E030E03093F9
:1010300071012093700181C1803D09F478C108F0ED
:10104000FBC0803C09F473C180910D0281608093E4
:101050000D02E0914001F0914101309709F00995AE
:10106000109273011092720110927101109270012E
:1010700010926B010E94E802809030019090310143
:10108000A0903201B0903301681979098A099B094F
:10109000603177428105910508F4C1C08091B000AC
:1010A000807F81608093B0008091B100887F8160F3
:1010B0008093B10084B5807F816084BD85B5887FD1
:1010C000816085BD60E082E00E942A0282E00E9489
:1010D000D3018130910509F05EC020912E0130913D
:1010E0002F01232B09F057C090932F0180932E01DD
:1010F0000E94720E2FEF30E040E050E00E94CA0ED6
:101100004B01EB018FEF9FE00E94D30490E080E061
:101110000E94D304C03CD105CCF461E084E00E947D
:10112000FC01C038D10594F46EEF70E083E00E94BA
:101130006602C034D10554F48FEF9FE00E9475041D
:10114000A09724F461E087E00E94FC016EEF70E05C
:1011500085E00E9466020E94720EA70196010E941D
:10116000CA0E6F5F7F4F8F4F9F4F60930301709345
:10117000040180930501909306010E94E8026093A8
:101180002A0170932B0180932C0190932D01B401BF
:1011900086E00E94660282E00E94D301892BF9F466
:1011A00080912E0190912F010197C9F410922F0187
:1011B00010922E0190E080E00E94D30460E084E071
:1011C0000E94FC0170E060E083E00E94660290E013
:1011D00080E00E94750460E087E00E94FC010E94AC
:1011E000E80280902A0190902B01A0902C01B090F1
:1011F0002D01681979098A099B0980900301909053
:101200000401A0900501B0900601681579058A05D2
:101210009B0528F070E060E085E00E946602E0E057
:10122000F0E0EF2B09F4A6CE0E945E03882309F4B8
:101230009FCE0E9400009CCE803E09F4F6CE803FF7
:1012400009F002CF40E850E05093710140937001E3
:1012500010926B0180937D0170C0873F99F308F075
:101260005FC0833F09F463C008F4DFCE863F09F016
:10127000EBCE80937A011092790110927B0110924B
:101280007C0181E08093FD01109273011092720144
:10129000109271011092700180917A01803939F4B5
:1012A00080917C01811103C080E880937A01809154
:1012B0007A018058813638F480917901B81619F096
:1012C000912CB11004C00E94C40099249394909171
:1012D0007801392F317090FF3DC1892F8E7F09F43D
:1012E00039C180917A0120E8280F213608F0D2C157
:1012F00020917901B21619F031E0B11030E09695E5
:10130000923009F425C1933009F4C1C1913009F03C
:1013100021C140917C0160917B010E941E041AC191
:101320008D3F08F4A6CF8E3F08F0A3CF8DCEE2E02C
:10133000F0E0F0937101E09370012091720130911F
:10134000730140917001509171014150510924176E
:101350003507E0F080937A01CF70CF5FC0937901B9
:1013600080916E0180937B0110927C011093FF01AC
:101370000093FE011092730110927201109271019C
:101380001092700181E08093FD0186CF2F5F3F4F67
:1013900030937301209372016DCEC7FF0CC0CD3F17
:1013A00008F04CC0C83F08F04CC0C03F09F456C01C
:1013B000C73F09F453C020916D01FC01E25CFE4F70
:1013C000203F19F0273F09F073C0C7AFC0917001EB
:1013D000D09171019E01215031098217930708F4C1
:1013E000B1C090906D01B0EF9B1619F0E7EF9E121F
:1013F00061C0C091FC0180EF8093FC0180937A0171
:1014000080E880937B0110927C011092790120E8A2
:1014100030E03093FF012093FE0181E08093FD01D5
:101420000E94C40087EF80937D01C0937E0142E05B
:1014300050E050937301409372011CCECE3F08F4EC
:10144000BACFC0937A0110927B0110927C01109266
:1014500079011093FF010093FE0194CF20917D014B
:10146000203F19F0273F09F0EFCD9C012F5F3F4F40
:10147000825C9E4FDC01DF96CC9380EF80937A01F3
:1014800020937B0130937C01109279013093FF010E
:101490002093FE0181E08093FD0110927301109270
:1014A0007201109271011092700110926B01F4CED2
:1014B000C7A78CCF892D0E945104A82E80937A0152
:1014C0000E945F04882389F1892D8F708F5F80933C
:1014D000790180916E0180937B0180916F01C3300F
:1014E000D10509F080E080937C01D093FF01C09387
:1014F000FE0110927301109272011092710110920C
:10150000700181E08093FD0150EBA51659F05A154A
:1015100078F080E9A81631F090EAA91619F0A0E851
:10152000AA12C3CF90926B01B7CE10927901D1CF9E
:10153000B0EDAB16B9F3E0EEAE16A1F3F0ECAF12DE
:10154000B4CFF0CF0196909373018093720192CD46
:101550003111DFCE992009F48DCDB090340151E0E6
:101560005B1508F435C1CB2DD0E020917901CE0177
:10157000880F991F019628171906F1F580917A01B5
:10158000803809F40DC18039B9F5809125018F5F4C
:101590008093250120917B01A22FA851BB0BB09312
:1015A0002201A093210120930101B7FFF1C0109205
:1015B0002201109221016091210170912201072ED8
:1015C000000C880B990B0E94441020E030E848E89A
:1015D00052E40E94D0100E940C10CB010E94D30450
:1015E00060917C0170E0660F771F83E00E946602C5
:1015F00061E084E00E94FC018091790190E022E0AA
:1016000030E0CD2B11F024E030E08217930709F091
:1016100081C180917A01803809F4D2C0803909F003
:10162000D7C0809124018F5F8093240120917B019A
:10163000E22FE851FF0BF0932001E0931F0120936C
:101640000001F7FFB5C01092200110921F016091B8
:101650001F0170912001072E000C880B990B0E942E
:10166000441020E030E848E852E40E94D0100E9484
:101670000C10CB010E94750460917C0170E0660F34
:10168000771F85E00E94660261E087E00AC13111A0
:1016900061CF3FCEE0E1E80FE03108F05BCFF0E052
:1016A000EC5AF44F0C945111670BB40B960B840B4E
:1016B000AA0AAA0A640BAA0A640BAA0A640B640B9E
:1016C000640BAA0A640B640B0E940B0443CFA09026
:1016D0007B01B0907C0121E8A216B10418F0E0E88B
:1016E000AE2EB12CCEE3D1E0CE018E5391408A15BF
:1016F0009B0508F02FCF6FAD809168019091690133
:101700000E9401042196F0CFC0917B0163EF80918C
:101710006801909169010E9401046C2F6F7780919C
:101720006801909169010E94010414CFC0917C016D
:1017300030E8C39FE001112480917B01C82B62EF48
:1017400080916801909169010E9401046C2F6F776C
:1017500080916801909169010E940104CC0FCD2F06
:10176000CC1FDD0BD195D9CF60917B0140E1649F07
:10177000B00111246077C0917C01CF70C62B61EF5E
:1017800080916801909169010E9401046C2FC7CF7C
:10179000DD970CF410CF70922201609221010BCFE3
:1017A00090917B0180910101981326CF60E021CFB9
:1017B000FD970CF44CCF7092200160921F0147CF2F
:1017C00090917B01809100019813A4C060E05DCFEF
:1017D000F2E0BF129FC080917A01803809F477C08F
:1017E0008039A9F4E0917901E150E73080F4F0E02C
:1017F000E450F44F0C945111030C4F0C540C5A0C40
:10180000440B5F0C630C8FEF9FE00E94D304809128
:10181000B000807F83608093B0008091B100887FAA
:1018200081608093B10084B5807F836084BD85B57D
:10183000887F816085BD61E082E00E942A020E946B
:10184000E8026093300170933101809332019093EC
:10185000330180917A01803E09F429C108F09AC0D1
:101860008B3709F400C1803B09F004CC80917B01E7
:101870008A3009F4EDC0883109F4BCC0813009F028
:10188000F9CB80913401823008F0F4CB60917C0177
:1018900070E0660F771F86E00E946602EBCB61E086
:1018A00084E00E94FC01B3CF6EEF70E083E00E9401
:1018B0006602ADCF8FEF9FE00E947504A8CF6EEF58
:1018C00070E085E0F4CF6EEF70E086E0F0CFE0915D
:1018D0007901E150E73008F09ACFF0E0EE58F34F8D
:1018E0000C945111790C7C0C7E0C810CE60B840C51
:1018F000870C90E080E089CF60E0D2CF70E060E0BC
:10190000D5CF90E080E0D8CF70E060E0DACF70E033
:1019100060E0DBCF23E0B2127ACF80917901813091
:1019200009F075CF80917B0190E06CE070E00E943F
:101930003D1120917A012038C1F0203909F067CF9C
:101940008C30910508F063CFFC01E755F34F0C9400
:101950005111030C070C4F0C070C540C5A0C070CBC
:10196000440B070C5F0C070C630C8C30910508F0DE
:101970004ECFFC01E254F34F0C945111790C070C3B
:101980007C0C070C7E0C810C070CE60B070C840CFE
:10199000070C870C8A3F09F473C08C3F09F479C0A7
:1019A000883F09F067CB8090260190902701A09096
:1019B0002801B09029012091020130E050E040E080
:1019C000C501B4010E94FC0E611112C061E082E009
:1019D0000E94FC013FEF831A930AA30AB30A809284
:1019E000260190922701A0922801B092290142CBB2
:1019F00060E0EDCFE0917C01E295EF70E83080F49B
:101A0000F0E0EB5FF24F0C9451110D0D180D1A0D13
:101A10001C0D1E0D200D220D240D88E48093020163
:101A200080910201811126CB81E08093020122CBBB
:101A300080E3F4CF88E1F2CF8CE0F0CF88E0EECF06
:101A400086E0ECCF84E0EACF43E040930201E8CFA8
:101A500080917C0190E025E0959587952A95E1F7A6
:101A60008093340107CB1092250160E084E00E944E
:101A7000FC011092240160E087E00E94FC01FACA98
:101A8000109226011092270110922801109229012C
:101A9000F1CA10922501109224015FEF50930101C9
:101AA0005093000160E084E00E94FC01E4CFC0910B
:101AB0007C01C0932301C13408F463C0609121010B
:101AC00070912201072E000C880B990B0E94441084
:101AD00020E030E848E852E40E94D0104B015C015D
:101AE0008C2F8054990BBC01072E000C880B990B8E
:101AF0000E9444101B012C01AC019B01C501B401E3
:101B00000E94D01020E030E040E850E40E94D01065
:101B100020E030E44CE156E40E949A0FA5019401C4
:101B20000E942E0F0E940C10CB010E94D3046091E2
:101B30001F0170912001072E000C880B990B0E9449
:101B4000441020E030E848E852E40E94D010A2019E
:101B500091010E94D01020E030E040E850E40E9463
:101B6000D01020E030E44CE156E40E949A0FA50129
:101B700094010E942E0F0E940C10CB010E9475044C
:101B800079CAC03409F476CA6091210170912201AA
:101B9000072E000C880B990B0E94441020E030E8BF
:101BA00048E852E40E94D0104B015C0160E470E010
:101BB0006C1B7109072E000C880B990B0E944410B6
:101BC0001B012C01AC019B01C501B4010E94D01086
:101BD00020E030E040E850E40E94D01020E030E403
:101BE0004CE156E40E949A0F9B01AC01C501B4017F
:101BF0000E942D0F0E940C10CB010E94D304609113
:101C00001F0170912001072E000C880B990B0E9478
:101C1000441020E030E848E852E40E94D010A201CD
:101C200091010E94D01020E030E040E850E40E9492
:101C3000D01020E030E44CE156E40E949A0F9B0162
:101C4000AC01C501B4010E942D0F95CF8F929F92D8
:101C5000AF92BF92CF92DF92EF92FF92CF93DF933A
:101C6000EC01688179818A819B816115710581050B
:101C7000910521F464E279ED8BE597E02DE133EFF6
:101C800041E050E00E94CA0E49015A019B01AC019B
:101C9000A7EAB1E40E94E90E6B017C01ACEEB4EF5F
:101CA000A50194010E94F70EC60ED71EE81EF91E6C
:101CB000F7FE06C081E0C81AD108E10880E8F80AFA
:101CC000C882D982EA82FB82C701B6019F77DF9181
:101CD000CF91FF90EF90DF90CF90BF90AF909F900B
:101CE0008F9008958F929F92AF92BF92CF92DF9282
:101CF000EF92FF92609107017091080180910901B4
:101D000090910A01611571058105910521F464E244
:101D100079ED8BE597E02DE133EF41E050E00E9453
:101D2000CA0E49015A019B01AC01A7EAB1E40E9425
:101D3000E90E6B017C01ACEEB4EFA50194010E94A9
:101D4000F70EC60ED71EE81EF91EF7FE06C081E08C
:101D5000C81AD108E10880E8F80AC0920701D092B9
:101D60000801E0920901F0920A01C701B6019F77CC
:101D7000FF90EF90DF90CF90BF90AF909F908F90AB
:101D8000089560930701709308018093090190936F
:101D90000A010895052E97FB1EF400940E94E10E9F
:101DA00057FD07D00E94FC0E07FC03D04EF40C94A4
:101DB000E10E50954095309521953F4F4F4F5F4F25
:101DC000089590958095709561957F4F8F4F9F4FA7
:101DD00008950E941E0FA59F900DB49F900DA49F83
:101DE000800D911D11240895B7FF0C94E90E0E94F7
:101DF000E90E821B930B0895A1E21A2EAA1BBB1BAE
:101E0000FD010DC0AA1FBB1FEE1FFF1FA217B307C6
:101E1000E407F50720F0A21BB30BE40BF50B661FDC
:101E2000771F881F991F1A9469F7609570958095A0
:101E300090959B01AC01BD01CF010895A29FB00117
:101E4000B39FC001A39F700D811D1124911DB29FEE
:101E5000700D811D1124911D08955058BB27AA278C
:101E60000E94450F0C9496100E94881038F00E9432
:101E70008F1020F039F49F3F19F426F40C9485104C
:101E80000EF4E095E7FB0C947F10E92F0E94A71059
:101E900058F3BA17620773078407950720F079F49F
:101EA000A6F50C94C9100EF4E0950B2EBA2FA02DB8
:101EB0000B01B90190010C01CA01A0011124FF27F7
:101EC000591B99F0593F50F4503E68F11A16F040F2
:101ED000A22F232F342F4427585FF3CF46953795F1
:101EE0002795A795F0405395C9F77EF41F16BA0BB6
:101EF000620B730B840BBAF09150A1F0FF0FBB1F64
:101F0000661F771F881FC2F70EC0BA0F621F731FAC
:101F1000841F48F4879577956795B795F7959E3F09
:101F200008F0B0CF9395880F08F09927EE0F97959A
:101F3000879508950E94AE0F0C9496100E948F1002
:101F400058F00E94881040F029F45F3F29F00C946B
:101F50007F1051110C94CA100C9485100E94A71088
:101F600068F39923B1F3552391F3951B550BBB27C8
:101F7000AA2762177307840738F09F5F5F4F220F0D
:101F8000331F441FAA1FA9F335D00E2E3AF0E0E804
:101F900032D091505040E695001CCAF72BD0FE2F4E
:101FA00029D0660F771F881FBB1F261737074807E2
:101FB000AB07B0E809F0BB0B802DBF01FF2793589A
:101FC0005F4F3AF09E3F510578F00C947F100C94CF
:101FD000CA105F3FE4F3983ED4F3869577956795F2
:101FE000B795F7959F5FC9F7880F911D96958795CF
:101FF00097F90895E1E0660F771F881FBB1F6217EE
:1020000073078407BA0720F0621B730B840BBA0BAB
:10201000EE1F88F7E09508950E9413106894B1119F
:102020000C94CA1008950E94AF1088F09F5798F042
:10203000B92F9927B751B0F0E1F0660F771F881FCD
:10204000991F1AF0BA95C9F714C0B13091F00E94E7
:10205000C910B1E008950C94C910672F782F882714
:10206000B85F39F0B93FCCF3869577956795B3950E
:10207000D9F73EF490958095709561957F4F8F4F7D
:102080009F4F0895E89409C097FB3EF49095809582
:10209000709561957F4F8F4F9F4F9923A9F0F92F2E
:1020A00096E9BB279395F695879577956795B795AC
:1020B000F111F8CFFAF4BB0F11F460FF1BC06F5F92
:1020C0007F4F8F4F9F4F16C0882311F096E911C0A4
:1020D000772321F09EE8872F762F05C0662371F0C5
:1020E00096E8862F70E060E02AF09A95660F771FD9
:1020F000881FDAF7880F9695879597F9089597F9CD
:102100009F6780E870E060E008959FEF80EC08959D
:1021100000240A94161617061806090608950024C6
:102120000A9412161306140605060895092E039440
:10213000000C11F4882352F0BB0F40F4BF2B11F4B4
:1021400060FF04C06F5F7F4F8F4F9F4F089557FD13
:102150009058440F551F59F05F3F71F04795880F15
:1021600097FB991F61F09F3F79F0879508951216AC
:1021700013061406551FF2CF4695F1DF08C0161658
:1021800017061806991FF1CF869571056105089409
:102190000895E894BB2766277727CB0197F9089520
:1021A0000E94E3100C9496100E94881038F00E9450
:1021B0008F1020F0952311F00C947F100C94851053
:1021C00011240C94CA100E94A71070F3959FC1F3BC
:1021D000950F50E0551F629FF001729FBB27F00DD5
:1021E000B11D639FAA27F00DB11DAA1F649F66272A
:1021F000B00DA11D661F829F2227B00DA11D621F79
:10220000739FB00DA11D621F839FA00D611D221F32
:10221000749F3327A00D611D231F849F600D211D16
:10222000822F762F6A2F11249F5750409AF0F1F099
:1022300088234AF0EE0FFF1FBB1F661F771F881F02
:1022400091505040A9F79E3F510580F00C947F10AB
:102250000C94CA105F3FE4F3983ED4F386957795CB
:102260006795B795F795E7959F5FC1F7FE2B880FA8
:10227000911D9695879597F9089597FB072E16F46B
:10228000009407D077FD09D00E94571107FC05D0B4
:102290003EF4909581959F4F0895709561957F4F7D
:1022A0000895EE0FFF1F0590F491E02D0994AA1BED
:1022B000BB1B51E107C0AA1FBB1FA617B70710F031
:1022C000A61BB70B881F991F5A95A9F78095909563
:0A22D000BC01CD010895F894FFCF82
:1022DA00FFFF06A086010001000000000000009434
:0E22EA0003F4022103E1035203300344030016
:00000001FF
