:100000000C9462000C948A000C948A000C94D50322
:100010000C948A000C948A000C948A000C948A0038
:100020000C948A000C948A000C948A000C948A0028
:100030000C948A000C948A000C948A000C948A0018
:100040000C9433030C948A000C94A3030C947D034A
:100050000C948A000C948A000C948A000C948A00F8
:100060000C948A000C948A000000000024002700F1
:100070002A0000000000250028002B0000000000DE
:1000800023002600290004040404040404040202DA
:100090000202020203030303030301020408102007
:1000A0004080010204081020010204081020000012
:1000B0000008000201000003040700000000000027
:1000C0000000480611241FBECFEFD4E0DEBFCDBF35
:1000D00011E0A0E0B1E0EEE3FDE002C005900D927A
:1000E000A439B107D9F722E0A4E9B1E001C01D921B
:1000F000A234B207E1F710E0C2E6D0E004C02197D5
:10010000FE010E949706C136D107C9F70E94440438
:100110000C949D060C940000833081F028F481300B
:1001200099F08230A9F008958730A9F08830C9F09D
:100130008430B1F4809180008F7D03C08091800075
:100140008F7780938000089584B58F7784BD08955C
:1001500084B58F7DFBCF8091B0008F778093B00006
:1001600008958091B0008F7DF9CFCF93DF93282F32
:1001700030E0F901E255FF4F8491F901E656FF4F57
:10018000D491F901EA57FF4FC491CC23A1F081111A
:100190000E948C00EC2FF0E0EE0FFF1FE458FF4FA1
:1001A000A591B491EC91ED2381E090E009F480E019
:1001B000DF91CF91089580E090E0FACF1F93CF9325
:1001C000DF93282F30E0F901E255FF4F8491F901C8
:1001D000E656FF4FD491F901EA57FF4FC491CC2363
:1001E000A9F0162F81110E948C00EC2FF0E0EE0F89
:1001F000FF1FEE58FF4FA591B4918FB7F894EC9183
:10020000111108C0D095DE23DC938FBFDF91CF9111
:100210001F910895DE2BF8CFCF93DF9390E0FC0180
:10022000E656FF4F24918A579F4FFC018491882303
:10023000C9F090E0880F991FFC01E859FF4FA59184
:10024000B491FC01EE58FF4FC591D49161110DC0DE
:100250009FB7F8948C91209582238C9388812823D2
:1002600028839FBFDF91CF910895623051F49FB7EB
:10027000F8943C91822F809583238C93E8812E2BD8
:10028000EFCF8FB7F894EC912E2B2C938FBFEACF42
:100290003FB7F8948091A1019091A201A091A30190
:1002A000B091A40126B5A89B05C02F3F19F0019677
:1002B000A11DB11D3FBFBA2FA92F982F8827BC01C0
:1002C000CD01620F711D811D911D42E0660F771FE8
:1002D000881F991F4A95D1F70895AF92BF92CF9288
:1002E000DF92EF92FF920F931F93CF93DF936C01F6
:1002F0007B018B01040F151FEB015E01AE18BF08D7
:10030000C017D10759F06991D601ED91FC91019088
:10031000F081E02DC6010995892B79F7C501DF91A0
:10032000CF911F910F91FF90EF90DF90CF90BF90F2
:10033000AF900895FC01538D448D252F30E0842F1C
:1003400090E0821B930B541710F0CF9608950197FD
:100350000895FC01918D828D981761F0A28DAE0FEA
:10036000BF2FB11D5D968C91928D9F5F9F73928F71
:1003700090E008958FEF9FEF0895FC01918D828D9D
:10038000981731F0828DE80FF11D858D90E008956A
:100390008FEF9FEF0895FC01918D228D892F90E0C2
:1003A000805C9F4F821B91098F739927089585EA7E
:1003B00091E00E94CB0121E0892B09F420E0822FFB
:1003C000089580E090E0892B29F00E94D7018111E7
:1003D0000C9400000895FC01A48DA80FB92FB11D45
:1003E000A35ABF4F2C91848D90E001968F7399276B
:1003F000848FA689B7892C93A089B1898C91837049
:1004000080648C93938D848D981306C00288F38941
:10041000E02D80818F7D80830895EF92FF920F936E
:100420001F93CF93DF93EC0181E0888F9B8D8C8DA0
:1004300098131AC0E889F989808185FF15C09FB794
:10044000F894EE89FF896083E889F9898081837057
:10045000806480839FBF81E090E0DF91CF911F9106
:100460000F91FF90EF900895F62E0B8D10E00F5F27
:100470001F4F0F731127E02E8C8D8E110CC00FB6FD
:1004800007FCFACFE889F989808185FFF5CFCE0195
:100490000E94EB01F1CFEB8DEC0FFD2FF11DE35A24
:1004A000FF4FF0829FB7F8940B8FEA89FB89808118
:1004B0008062CFCFCF93DF93EC01888D8823B9F092
:1004C000AA89BB89E889F9898C9185FD03C080815F
:1004D00086FD0DC00FB607FCF7CF8C9185FFF2CFDC
:1004E000808185FFEDCFCE010E94EB01E9CFDF9146
:1004F000CF9108950F931F93CF93DF9360E08AE02D
:100500000E94DE00809108019091090108E010E04E
:10051000081B190B81E090E090930901809308017A
:10052000D0E0C0E060E08BE00C171D0744F00E94B3
:10053000DE0061E08BE00E94DE002196F3CF0E9496
:10054000DE0061E08AE0DF91CF911F910F910C9462
:10055000DE00FC0101900020E9F73197AF01481B54
:10056000590BBC0185EA91E00C946D018F929F922A
:10057000AF92BF92CF92DF92EF92FF920F931F93B1
:10058000CF93DF93CDB7DEB7A1970FB6F894DEBF58
:100590000FBECDBF6C01990FEE08FF08F7FE41C0FA
:1005A0006DE285EA91E00E940D028C01222733273B
:1005B000A9012C193D094E095F0919A2CE018196A6
:1005C0007C019AE0892E912CA12CB12CCA01B90191
:1005D000A50194010E947506605DF70162937F0199
:1005E000211531054105510589F790E080E03097EC
:1005F00019F0CF010E94A902800F911FA1960FB69A
:10060000F894DEBF0FBECDBFDF91CF911F910F9148
:10061000FF90EF90DF90CF90BF90AF909F908F9022
:100620000895A701960119A28E010F5D1F4F8AE060
:10063000C82ED12CE12CF12CCA01B901A7019601D9
:100640000E947506605DF80162938F0121153105E6
:100650004105510589F790E080E0309779F2CF01AC
:100660000E94A902CBCF1F920F920FB60F921124B6
:100670002F933F938F939F93AF93BF9380919D014F
:1006800090919E01A0919F01B091A00130919C0199
:1006900023E0230F2D3758F50196A11DB11D20939E
:1006A0009C0180939D0190939E01A0939F01B09324
:1006B000A0018091A1019091A201A091A301B0910C
:1006C000A4010196A11DB11D8093A1019093A201E7
:1006D000A093A301B093A401BF91AF919F918F917B
:1006E0003F912F910F900FBE0F901F90189526E805
:1006F000230F0296A11DB11DD2CF1F920F920FB6EC
:100700000F9211242F933F934F935F936F937F9397
:100710008F939F93AF93BF93EF93FF9385EA91E0FD
:100720000E94EB01FF91EF91BF91AF919F918F914B
:100730007F916F915F914F913F912F910F900FBEDD
:100740000F901F9018951F920F920FB60F921124C1
:100750002F938F939F93EF93FF93E091B501F091C7
:10076000B6018081E091BB01F091BC0182FD1BC00C
:1007700090818091BE018F5F8F732091BF0182179E
:1007800041F0E091BE01F0E0EB55FE4F958F809374
:10079000BE01FF91EF919F918F912F910F900FBE0E
:1007A0000F901F9018958081F4CF1F920F920FB673
:1007B0000F921124FF920F931F932F933F934F9308
:1007C0005F936F937F938F939F93AF93BF93CF93D9
:1007D000DF93EF93FF93C3B1C17083B1D1E0982F42
:1007E0009270F92E81FFD0E0CC2309F18091950120
:1007F00081111DC081E090E0909399018093980150
:1008000000919A0110919B010130110581F461E082
:100810008BE00E94DE008091080190910901019611
:100820008930910564F59093090180930801FF20B8
:1008300061F080919401811108C081E090E0909373
:100840009701809396010E947A02C0939501D093FC
:100850009401FF91EF91DF91CF91BF91AF919F9163
:100860008F917F916F915F914F913F912F911F9148
:100870000F91FF900F900FBE0F901F90189510933F
:10088000090100930801D3CF789484B5826084BDB8
:1008900084B5816084BD85B5826085BD85B5816084
:1008A00085BD80916E00816080936E001092810002
:1008B00080918100826080938100809181008160BD
:1008C000809381008091800081608093800080917E
:1008D000B10084608093B1008091B000816080930A
:1008E000B00080917A00846080937A0080917A00D1
:1008F000826080937A0080917A00816080937A0090
:1009000080917A00806880937A001092C100E09113
:10091000B501F091B60182E08083E091B101F091E0
:10092000B2011082E091B301F091B40180E18083C3
:100930001092BD01E091B901F091BA0186E0808387
:10094000E091B701F091B801808180618083E091EE
:10095000B701F091B801808188608083E091B70190
:10096000F091B801808180688083E091B701F091B7
:10097000B80180818F7D808361E088E00E94DE0085
:1009800061E089E00E94DE0061E08AE00E94DE0012
:100990000E9448014B015C0188EBC82E8BE0D82EE9
:1009A000E12CF12C0E944801681979098A099B09F8
:1009B000683E734081059105A8F321E0C21AD10871
:1009C000E108F10888EE880E83E0981EA11CB11C96
:1009D000C114D104E104F10429F760E088E00E9429
:1009E000DE0060E089E00E94DE0060E08AE00E94B4
:1009F000DE008CE191E00E94A90280E291E00E9479
:100A0000A90260E088E00E940C0160E089E00E9499
:100A10000C0162E082E00E940C0162E083E00E942F
:100A20000C0162E084E00E940C0161E08BE00E9416
:100A30000C0160E08AE00E940C01809168008160F6
:100A40008093680080916B00836080936B001092AC
:100A50009B0110929A01C0E0D0E083E291E00E94F5
:100A6000A90288E00E94B5000E94B60280E391E0EE
:100A70000E94A90289E00E94B5000E94B6028DE39F
:100A800091E00E94A90282E00E94B5000E94B60295
:100A90008CE491E00E94A90283E00E94B5000E94CC
:100AA000B6028FE591E00E94A90284E00E94B500A1
:100AB0000E94B60281E791E00E94A9028BE00E94A9
:100AC000B5000E94B6028BE791E00E94A9028091D6
:100AD0009A0190919B010E94B60287E891E00E94E2
:100AE000A90280910801909109010E94B6028BE34E
:100AF00091E00E94A90280E291E00E94A90282E0B6
:100B00000E94B500892B61F4809106019091070144
:100B1000019731F410920701109206010E947A02A7
:100B200082E00E94B5008130910551F420910601C8
:100B300030910701232B21F4909307018093060144
:100B400083E00E94B500892B79F480910401909193
:100B500005018130910541F41092050110920401C4
:100B6000909309018093080183E00E94B5008130D1
:100B7000910551F42091040130910501232B21F4BA
:100B800090930501809304018AE00E94B500892BAF
:100B900051F48091020190910301019721F4109288
:100BA0000301109202018AE00E94B5008130910594
:100BB00071F42091020130910301232B41F49093B1
:100BC000030180930201909309018093080184E05E
:100BD0000E94B500892BB1F42091000130910101F0
:100BE0002130310579F410920101109200018091B9
:100BF0009A0190919B01009709F041C030939B01AD
:100C000020939A0184E00E94B5008130910551F44F
:100C10002091000130910101232B21F490930101D7
:100C20008093000188E00E94B500892B71F48091C7
:100C3000980190919901019741F4109299011092B5
:100C4000980160E08BE00E94DE0089E00E94B50020
:100C5000892B51F48091960190919701019721F48D
:100C60001092970110929601209709F4F6CE0E94F7
:100C7000D701882309F4F1CE0E940000EECE01973F
:100C800009F610929B0110929A010E947A02BACF43
:100C9000E5EAF1E01382128288EE93E0A0E0B0E092
:100CA00084839583A683B7838EE091E091838083CC
:100CB00085EC90E09587848784EC90E09787868721
:100CC00080EC90E0918B808B81EC90E0938B828B19
:100CD00082EC90E0958B848B86EC90E0978B868BF2
:100CE000118E128E138E148E0895A1E21A2EAA1B55
:100CF000BB1BFD010DC0AA1FBB1FEE1FFF1FA217CC
:100D0000B307E407F50720F0A21BB30BE40BF50BC8
:100D1000661F771F881F991F1A9469F76095709551
:100D2000809590959B01AC01BD01CF010895EE0F18
:0E0D3000FF1F0590F491E02D0994F894FFCF79
:100D3E0001000100010001000100000000000D0291
:100D4E006D019A015A02CB01A901BD01322E30006C
:100D5E000D0A00204558545F4144565F494E20000D
:100D6E00204558545F5253545F494E20002052453F
:100D7E005345545F425554544F4E20002053455412
:100D8E005F46495253545F425554544F4E200020F3
:100D9E0053544F505F52554E5F425554544F4E2050
:100DAE0000204144565F4F5554200020706C6179ED
:100DBE007374617465200020706C6179696E64656E
:040DCE007820000089
:00000001FF
